{
	"task2/BeggingContract.sol": {
		"BeggingContract": {
			"abi": [
				{
					"inputs": [],
					"stateMutability": "nonpayable",
					"type": "constructor"
				},
				{
					"inputs": [
						{
							"internalType": "address",
							"name": "owner",
							"type": "address"
						}
					],
					"name": "OwnableInvalidOwner",
					"type": "error"
				},
				{
					"inputs": [
						{
							"internalType": "address",
							"name": "account",
							"type": "address"
						}
					],
					"name": "OwnableUnauthorizedAccount",
					"type": "error"
				},
				{
					"anonymous": false,
					"inputs": [
						{
							"indexed": true,
							"internalType": "address",
							"name": "donor",
							"type": "address"
						},
						{
							"indexed": false,
							"internalType": "uint256",
							"name": "value",
							"type": "uint256"
						}
					],
					"name": "DonateReceived",
					"type": "event"
				},
				{
					"anonymous": false,
					"inputs": [
						{
							"indexed": true,
							"internalType": "address",
							"name": "donor",
							"type": "address"
						},
						{
							"indexed": false,
							"internalType": "uint256",
							"name": "value",
							"type": "uint256"
						}
					],
					"name": "FundsWithdrawn",
					"type": "event"
				},
				{
					"anonymous": false,
					"inputs": [
						{
							"indexed": true,
							"internalType": "address",
							"name": "previousOwner",
							"type": "address"
						},
						{
							"indexed": true,
							"internalType": "address",
							"name": "newOwner",
							"type": "address"
						}
					],
					"name": "OwnershipTransferred",
					"type": "event"
				},
				{
					"inputs": [],
					"name": "donate",
					"outputs": [],
					"stateMutability": "payable",
					"type": "function"
				},
				{
					"inputs": [],
					"name": "getContractBalance",
					"outputs": [
						{
							"internalType": "uint256",
							"name": "",
							"type": "uint256"
						}
					],
					"stateMutability": "view",
					"type": "function"
				},
				{
					"inputs": [
						{
							"internalType": "address",
							"name": "donorAddr",
							"type": "address"
						}
					],
					"name": "getDonation",
					"outputs": [
						{
							"internalType": "uint256",
							"name": "",
							"type": "uint256"
						}
					],
					"stateMutability": "view",
					"type": "function"
				},
				{
					"inputs": [],
					"name": "owner",
					"outputs": [
						{
							"internalType": "address",
							"name": "",
							"type": "address"
						}
					],
					"stateMutability": "view",
					"type": "function"
				},
				{
					"inputs": [],
					"name": "queryTop3Donor",
					"outputs": [
						{
							"internalType": "address[3]",
							"name": "",
							"type": "address[3]"
						}
					],
					"stateMutability": "view",
					"type": "function"
				},
				{
					"inputs": [],
					"name": "renounceOwnership",
					"outputs": [],
					"stateMutability": "nonpayable",
					"type": "function"
				},
				{
					"inputs": [
						{
							"internalType": "address",
							"name": "newOwner",
							"type": "address"
						}
					],
					"name": "transferOwnership",
					"outputs": [],
					"stateMutability": "nonpayable",
					"type": "function"
				},
				{
					"inputs": [],
					"name": "withdraw",
					"outputs": [],
					"stateMutability": "payable",
					"type": "function"
				},
				{
					"stateMutability": "payable",
					"type": "receive"
				}
			],
			"devdoc": {
				"errors": {
					"OwnableInvalidOwner(address)": [
						{
							"details": "The owner is not a valid owner account. (eg. `address(0)`)"
						}
					],
					"OwnableUnauthorizedAccount(address)": [
						{
							"details": "The caller account is not authorized to perform an operation."
						}
					]
				},
				"kind": "dev",
				"methods": {
					"owner()": {
						"details": "Returns the address of the current owner."
					},
					"renounceOwnership()": {
						"details": "Leaves the contract without owner. It will not be possible to call `onlyOwner` functions. Can only be called by the current owner. NOTE: Renouncing ownership will leave the contract without an owner, thereby disabling any functionality that is only available to the owner."
					},
					"transferOwnership(address)": {
						"details": "Transfers ownership of the contract to a new account (`newOwner`). Can only be called by the current owner."
					}
				},
				"version": 1
			},
			"evm": {
				"assembly": "    /* \"task2/BeggingContract.sol\":109:2941  contract BeggingContract is Ownable{... */\n  mstore(0x40, 0x80)\n    /* \"task2/BeggingContract.sol\":472:507  constructor() Ownable(msg.sender){} */\n  callvalue\n  dup1\n  iszero\n  tag_1\n  jumpi\n  revert(0x00, 0x00)\ntag_1:\n  pop\n    /* \"task2/BeggingContract.sol\":494:504  msg.sender */\n  caller\n    /* \"@openzeppelin/contracts/access/Ownable.sol\":1297:1298  0 */\n  0x00\n    /* \"@openzeppelin/contracts/access/Ownable.sol\":1273:1299  initialOwner == address(0) */\n  0xffffffffffffffffffffffffffffffffffffffff\n  and\n    /* \"@openzeppelin/contracts/access/Ownable.sol\":1273:1285  initialOwner */\n  dup2\n    /* \"@openzeppelin/contracts/access/Ownable.sol\":1273:1299  initialOwner == address(0) */\n  0xffffffffffffffffffffffffffffffffffffffff\n  and\n  sub\n    /* \"@openzeppelin/contracts/access/Ownable.sol\":1269:1364  if (initialOwner == address(0)) {... */\n  tag_5\n  jumpi\n    /* \"@openzeppelin/contracts/access/Ownable.sol\":1350:1351  0 */\n  0x00\n    /* \"@openzeppelin/contracts/access/Ownable.sol\":1322:1353  OwnableInvalidOwner(address(0)) */\n  mload(0x40)\n  0x1e4fbdf700000000000000000000000000000000000000000000000000000000\n  dup2\n  mstore\n  0x04\n  add\n  tag_6\n  swap2\n  swap1\n  tag_7\n  jump\t// in\ntag_6:\n  mload(0x40)\n  dup1\n  swap2\n  sub\n  swap1\n  revert\n    /* \"@openzeppelin/contracts/access/Ownable.sol\":1269:1364  if (initialOwner == address(0)) {... */\ntag_5:\n    /* \"@openzeppelin/contracts/access/Ownable.sol\":1373:1405  _transferOwnership(initialOwner) */\n  tag_8\n    /* \"@openzeppelin/contracts/access/Ownable.sol\":1392:1404  initialOwner */\n  dup2\n    /* \"@openzeppelin/contracts/access/Ownable.sol\":1373:1391  _transferOwnership */\n  shl(0x20, tag_9)\n    /* \"@openzeppelin/contracts/access/Ownable.sol\":1373:1405  _transferOwnership(initialOwner) */\n  0x20\n  shr\n  jump\t// in\ntag_8:\n    /* \"@openzeppelin/contracts/access/Ownable.sol\":1225:1412  constructor(address initialOwner) {... */\n  pop\n    /* \"task2/BeggingContract.sol\":109:2941  contract BeggingContract is Ownable{... */\n  jump(tag_11)\n    /* \"@openzeppelin/contracts/access/Ownable.sol\":2912:3099  function _transferOwnership(address newOwner) internal virtual {... */\ntag_9:\n    /* \"@openzeppelin/contracts/access/Ownable.sol\":2985:3001  address oldOwner */\n  0x00\n    /* \"@openzeppelin/contracts/access/Ownable.sol\":3004:3010  _owner */\n  0x00\n  0x00\n  swap1\n  sload\n  swap1\n  0x0100\n  exp\n  swap1\n  div\n  0xffffffffffffffffffffffffffffffffffffffff\n  and\n    /* \"@openzeppelin/contracts/access/Ownable.sol\":2985:3010  address oldOwner = _owner */\n  swap1\n  pop\n    /* \"@openzeppelin/contracts/access/Ownable.sol\":3029:3037  newOwner */\n  dup2\n    /* \"@openzeppelin/contracts/access/Ownable.sol\":3020:3026  _owner */\n  0x00\n  0x00\n    /* \"@openzeppelin/contracts/access/Ownable.sol\":3020:3037  _owner = newOwner */\n  0x0100\n  exp\n  dup2\n  sload\n  dup2\n  0xffffffffffffffffffffffffffffffffffffffff\n  mul\n  not\n  and\n  swap1\n  dup4\n  0xffffffffffffffffffffffffffffffffffffffff\n  and\n  mul\n  or\n  swap1\n  sstore\n  pop\n    /* \"@openzeppelin/contracts/access/Ownable.sol\":3083:3091  newOwner */\n  dup2\n    /* \"@openzeppelin/contracts/access/Ownable.sol\":3052:3092  OwnershipTransferred(oldOwner, newOwner) */\n  0xffffffffffffffffffffffffffffffffffffffff\n  and\n    /* \"@openzeppelin/contracts/access/Ownable.sol\":3073:3081  oldOwner */\n  dup2\n    /* \"@openzeppelin/contracts/access/Ownable.sol\":3052:3092  OwnershipTransferred(oldOwner, newOwner) */\n  0xffffffffffffffffffffffffffffffffffffffff\n  and\n  0x8be0079c531659141344cd1fd0a4f28419497f9722a3daafe3b4186f6b6457e0\n  mload(0x40)\n  mload(0x40)\n  dup1\n  swap2\n  sub\n  swap1\n  log3\n    /* \"@openzeppelin/contracts/access/Ownable.sol\":2975:3099  {... */\n  pop\n    /* \"@openzeppelin/contracts/access/Ownable.sol\":2912:3099  function _transferOwnership(address newOwner) internal virtual {... */\n  pop\n  jump\t// out\n    /* \"#utility.yul\":7:133   */\ntag_13:\n    /* \"#utility.yul\":44:51   */\n  0x00\n    /* \"#utility.yul\":84:126   */\n  0xffffffffffffffffffffffffffffffffffffffff\n    /* \"#utility.yul\":77:82   */\n  dup3\n    /* \"#utility.yul\":73:127   */\n  and\n    /* \"#utility.yul\":62:127   */\n  swap1\n  pop\n    /* \"#utility.yul\":7:133   */\n  swap2\n  swap1\n  pop\n  jump\t// out\n    /* \"#utility.yul\":139:235   */\ntag_14:\n    /* \"#utility.yul\":176:183   */\n  0x00\n    /* \"#utility.yul\":205:229   */\n  tag_19\n    /* \"#utility.yul\":223:228   */\n  dup3\n    /* \"#utility.yul\":205:229   */\n  tag_13\n  jump\t// in\ntag_19:\n    /* \"#utility.yul\":194:229   */\n  swap1\n  pop\n    /* \"#utility.yul\":139:235   */\n  swap2\n  swap1\n  pop\n  jump\t// out\n    /* \"#utility.yul\":241:359   */\ntag_15:\n    /* \"#utility.yul\":328:352   */\n  tag_21\n    /* \"#utility.yul\":346:351   */\n  dup2\n    /* \"#utility.yul\":328:352   */\n  tag_14\n  jump\t// in\ntag_21:\n    /* \"#utility.yul\":323:326   */\n  dup3\n    /* \"#utility.yul\":316:353   */\n  mstore\n    /* \"#utility.yul\":241:359   */\n  pop\n  pop\n  jump\t// out\n    /* \"#utility.yul\":365:587   */\ntag_7:\n    /* \"#utility.yul\":458:462   */\n  0x00\n    /* \"#utility.yul\":496:498   */\n  0x20\n    /* \"#utility.yul\":485:494   */\n  dup3\n    /* \"#utility.yul\":481:499   */\n  add\n    /* \"#utility.yul\":473:499   */\n  swap1\n  pop\n    /* \"#utility.yul\":509:580   */\n  tag_23\n    /* \"#utility.yul\":577:578   */\n  0x00\n    /* \"#utility.yul\":566:575   */\n  dup4\n    /* \"#utility.yul\":562:579   */\n  add\n    /* \"#utility.yul\":553:559   */\n  dup5\n    /* \"#utility.yul\":509:580   */\n  tag_15\n  jump\t// in\ntag_23:\n    /* \"#utility.yul\":365:587   */\n  swap3\n  swap2\n  pop\n  pop\n  jump\t// out\n    /* \"task2/BeggingContract.sol\":109:2941  contract BeggingContract is Ownable{... */\ntag_11:\n  dataSize(sub_0)\n  dup1\n  dataOffset(sub_0)\n  0x00\n  codecopy\n  0x00\n  return\nstop\n\nsub_0: assembly {\n        /* \"task2/BeggingContract.sol\":109:2941  contract BeggingContract is Ownable{... */\n      mstore(0x40, 0x80)\n      jumpi(tag_1, lt(calldatasize, 0x04))\n      shr(0xe0, calldataload(0x00))\n      dup1\n      0x8da5cb5b\n      gt\n      tag_11\n      jumpi\n      dup1\n      0x8da5cb5b\n      eq\n      tag_7\n      jumpi\n      dup1\n      0xe3a137f8\n      eq\n      tag_8\n      jumpi\n      dup1\n      0xed88c68e\n      eq\n      tag_9\n      jumpi\n      dup1\n      0xf2fde38b\n      eq\n      tag_10\n      jumpi\n      jump(tag_2)\n    tag_11:\n      dup1\n      0x3ccfd60b\n      eq\n      tag_3\n      jumpi\n      dup1\n      0x410a1d32\n      eq\n      tag_4\n      jumpi\n      dup1\n      0x6f9fb98a\n      eq\n      tag_5\n      jumpi\n      dup1\n      0x715018a6\n      eq\n      tag_6\n      jumpi\n      jump(tag_2)\n    tag_1:\n      jumpi(tag_2, calldatasize)\n        /* \"task2/BeggingContract.sol\":963:964  0 */\n      0x00\n        /* \"task2/BeggingContract.sol\":951:960  msg.value */\n      callvalue\n        /* \"task2/BeggingContract.sol\":951:964  msg.value > 0 */\n      gt\n        /* \"task2/BeggingContract.sol\":943:986  require(msg.value > 0, 'msg value must >0') */\n      tag_14\n      jumpi\n      mload(0x40)\n      0x08c379a000000000000000000000000000000000000000000000000000000000\n      dup2\n      mstore\n      0x04\n      add\n      tag_15\n      swap1\n      tag_16\n      jump\t// in\n    tag_15:\n      mload(0x40)\n      dup1\n      swap2\n      sub\n      swap1\n      revert\n    tag_14:\n        /* \"task2/BeggingContract.sol\":1028:1029  0 */\n      0x00\n        /* \"task2/BeggingContract.sol\":999:1012  donorsMapping */\n      0x01\n        /* \"task2/BeggingContract.sol\":999:1024  donorsMapping[msg.sender] */\n      0x00\n        /* \"task2/BeggingContract.sol\":1013:1023  msg.sender */\n      caller\n        /* \"task2/BeggingContract.sol\":999:1024  donorsMapping[msg.sender] */\n      0xffffffffffffffffffffffffffffffffffffffff\n      and\n      0xffffffffffffffffffffffffffffffffffffffff\n      and\n      dup2\n      mstore\n      0x20\n      add\n      swap1\n      dup2\n      mstore\n      0x20\n      add\n      0x00\n      keccak256\n      sload\n        /* \"task2/BeggingContract.sol\":999:1029  donorsMapping[msg.sender] == 0 */\n      sub\n        /* \"task2/BeggingContract.sol\":996:1078  if(donorsMapping[msg.sender] == 0){... */\n      tag_17\n      jumpi\n        /* \"task2/BeggingContract.sol\":1044:1050  donors */\n      0x02\n        /* \"task2/BeggingContract.sol\":1056:1066  msg.sender */\n      caller\n        /* \"task2/BeggingContract.sol\":1044:1067  donors.push(msg.sender) */\n      swap1\n      dup1\n      0x01\n      dup2\n      sload\n      add\n      dup1\n      dup3\n      sstore\n      dup1\n      swap2\n      pop\n      pop\n      0x01\n      swap1\n      sub\n      swap1\n      0x00\n      mstore\n      keccak256(0x00, 0x20)\n      add\n      0x00\n      swap1\n      swap2\n      swap1\n      swap2\n      swap1\n      swap2\n      0x0100\n      exp\n      dup2\n      sload\n      dup2\n      0xffffffffffffffffffffffffffffffffffffffff\n      mul\n      not\n      and\n      swap1\n      dup4\n      0xffffffffffffffffffffffffffffffffffffffff\n      and\n      mul\n      or\n      swap1\n      sstore\n      pop\n        /* \"task2/BeggingContract.sol\":996:1078  if(donorsMapping[msg.sender] == 0){... */\n    tag_17:\n        /* \"task2/BeggingContract.sol\":1116:1125  msg.value */\n      callvalue\n        /* \"task2/BeggingContract.sol\":1087:1100  donorsMapping */\n      0x01\n        /* \"task2/BeggingContract.sol\":1087:1112  donorsMapping[msg.sender] */\n      0x00\n        /* \"task2/BeggingContract.sol\":1101:1111  msg.sender */\n      caller\n        /* \"task2/BeggingContract.sol\":1087:1112  donorsMapping[msg.sender] */\n      0xffffffffffffffffffffffffffffffffffffffff\n      and\n      0xffffffffffffffffffffffffffffffffffffffff\n      and\n      dup2\n      mstore\n      0x20\n      add\n      swap1\n      dup2\n      mstore\n      0x20\n      add\n      0x00\n      keccak256\n      0x00\n        /* \"task2/BeggingContract.sol\":1087:1125  donorsMapping[msg.sender] += msg.value */\n      dup3\n      dup3\n      sload\n      tag_19\n      swap2\n      swap1\n      tag_20\n      jump\t// in\n    tag_19:\n      swap3\n      pop\n      pop\n      dup2\n      swap1\n      sstore\n      pop\n        /* \"task2/BeggingContract.sol\":1155:1165  msg.sender */\n      caller\n        /* \"task2/BeggingContract.sol\":1140:1177  DonateReceived(msg.sender, msg.value) */\n      0xffffffffffffffffffffffffffffffffffffffff\n      and\n      0x313dc944d67ae2de3cd7539bfa6b5e62c8a287eacae6cda7a14ce97118770ab6\n        /* \"task2/BeggingContract.sol\":1167:1176  msg.value */\n      callvalue\n        /* \"task2/BeggingContract.sol\":1140:1177  DonateReceived(msg.sender, msg.value) */\n      mload(0x40)\n      tag_21\n      swap2\n      swap1\n      tag_22\n      jump\t// in\n    tag_21:\n      mload(0x40)\n      dup1\n      swap2\n      sub\n      swap1\n      log2\n        /* \"task2/BeggingContract.sol\":109:2941  contract BeggingContract is Ownable{... */\n      stop\n    tag_2:\n      revert(0x00, 0x00)\n        /* \"task2/BeggingContract.sol\":1229:1429  function withdraw() external payable onlyOwner {... */\n    tag_3:\n      tag_23\n      tag_24\n      jump\t// in\n    tag_23:\n      stop\n        /* \"task2/BeggingContract.sol\":1476:1653  function getDonation(address donorAddr) external view returns (uint){... */\n    tag_4:\n      callvalue\n      dup1\n      iszero\n      tag_25\n      jumpi\n      revert(0x00, 0x00)\n    tag_25:\n      pop\n      tag_26\n      0x04\n      dup1\n      calldatasize\n      sub\n      dup2\n      add\n      swap1\n      tag_27\n      swap2\n      swap1\n      tag_28\n      jump\t// in\n    tag_27:\n      tag_29\n      jump\t// in\n    tag_26:\n      mload(0x40)\n      tag_30\n      swap2\n      swap1\n      tag_22\n      jump\t// in\n    tag_30:\n      mload(0x40)\n      dup1\n      swap2\n      sub\n      swap1\n      return\n        /* \"task2/BeggingContract.sol\":1658:1765  function getContractBalance() external view returns (uint256) {... */\n    tag_5:\n      callvalue\n      dup1\n      iszero\n      tag_31\n      jumpi\n      revert(0x00, 0x00)\n    tag_31:\n      pop\n      tag_32\n      tag_33\n      jump\t// in\n    tag_32:\n      mload(0x40)\n      tag_34\n      swap2\n      swap1\n      tag_22\n      jump\t// in\n    tag_34:\n      mload(0x40)\n      dup1\n      swap2\n      sub\n      swap1\n      return\n        /* \"@openzeppelin/contracts/access/Ownable.sol\":2293:2394  function renounceOwnership() public virtual onlyOwner {... */\n    tag_6:\n      callvalue\n      dup1\n      iszero\n      tag_35\n      jumpi\n      revert(0x00, 0x00)\n    tag_35:\n      pop\n      tag_36\n      tag_37\n      jump\t// in\n    tag_36:\n      stop\n        /* \"@openzeppelin/contracts/access/Ownable.sol\":1638:1723  function owner() public view virtual returns (address) {... */\n    tag_7:\n      callvalue\n      dup1\n      iszero\n      tag_38\n      jumpi\n      revert(0x00, 0x00)\n    tag_38:\n      pop\n      tag_39\n      tag_40\n      jump\t// in\n    tag_39:\n      mload(0x40)\n      tag_41\n      swap2\n      swap1\n      tag_42\n      jump\t// in\n    tag_41:\n      mload(0x40)\n      dup1\n      swap2\n      sub\n      swap1\n      return\n        /* \"task2/BeggingContract.sol\":1815:2938  function queryTop3Donor() external view returns (address[3] memory) {... */\n    tag_8:\n      callvalue\n      dup1\n      iszero\n      tag_43\n      jumpi\n      revert(0x00, 0x00)\n    tag_43:\n      pop\n      tag_44\n      tag_45\n      jump\t// in\n    tag_44:\n      mload(0x40)\n      tag_46\n      swap2\n      swap1\n      tag_47\n      jump\t// in\n    tag_46:\n      mload(0x40)\n      dup1\n      swap2\n      sub\n      swap1\n      return\n        /* \"task2/BeggingContract.sol\":575:858  function donate() external payable {... */\n    tag_9:\n      tag_48\n      tag_49\n      jump\t// in\n    tag_48:\n      stop\n        /* \"@openzeppelin/contracts/access/Ownable.sol\":2543:2758  function transferOwnership(address newOwner) public virtual onlyOwner {... */\n    tag_10:\n      callvalue\n      dup1\n      iszero\n      tag_50\n      jumpi\n      revert(0x00, 0x00)\n    tag_50:\n      pop\n      tag_51\n      0x04\n      dup1\n      calldatasize\n      sub\n      dup2\n      add\n      swap1\n      tag_52\n      swap2\n      swap1\n      tag_28\n      jump\t// in\n    tag_52:\n      tag_53\n      jump\t// in\n    tag_51:\n      stop\n        /* \"task2/BeggingContract.sol\":1229:1429  function withdraw() external payable onlyOwner {... */\n    tag_24:\n        /* \"@openzeppelin/contracts/access/Ownable.sol\":1531:1544  _checkOwner() */\n      tag_55\n        /* \"@openzeppelin/contracts/access/Ownable.sol\":1531:1542  _checkOwner */\n      tag_56\n        /* \"@openzeppelin/contracts/access/Ownable.sol\":1531:1544  _checkOwner() */\n      jump\t// in\n    tag_55:\n        /* \"task2/BeggingContract.sol\":1286:1298  uint balance */\n      0x00\n        /* \"task2/BeggingContract.sol\":1301:1322  address(this).balance */\n      selfbalance\n        /* \"task2/BeggingContract.sol\":1286:1322  uint balance = address(this).balance */\n      swap1\n      pop\n        /* \"task2/BeggingContract.sol\":1349:1350  0 */\n      0x00\n        /* \"task2/BeggingContract.sol\":1340:1347  balance */\n      dup2\n        /* \"task2/BeggingContract.sol\":1340:1350  balance >0 */\n      gt\n        /* \"task2/BeggingContract.sol\":1332:1378  require(balance >0 , 'no balance to withdraw') */\n      tag_58\n      jumpi\n      mload(0x40)\n      0x08c379a000000000000000000000000000000000000000000000000000000000\n      dup2\n      mstore\n      0x04\n      add\n      tag_59\n      swap1\n      tag_60\n      jump\t// in\n    tag_59:\n      mload(0x40)\n      dup1\n      swap2\n      sub\n      swap1\n      revert\n    tag_58:\n        /* \"task2/BeggingContract.sol\":1396:1403  owner() */\n      tag_61\n        /* \"task2/BeggingContract.sol\":1396:1401  owner */\n      tag_40\n        /* \"task2/BeggingContract.sol\":1396:1403  owner() */\n      jump\t// in\n    tag_61:\n        /* \"task2/BeggingContract.sol\":1388:1413  payable(owner()).transfer */\n      0xffffffffffffffffffffffffffffffffffffffff\n      and\n        /* \"task2/BeggingContract.sol\":1388:1422  payable(owner()).transfer(balance) */\n      0x08fc\n        /* \"task2/BeggingContract.sol\":1414:1421  balance */\n      dup3\n        /* \"task2/BeggingContract.sol\":1388:1422  payable(owner()).transfer(balance) */\n      swap1\n      dup2\n      iszero\n      mul\n      swap1\n      mload(0x40)\n      0x00\n      mload(0x40)\n      dup1\n      dup4\n      sub\n      dup2\n      dup6\n      dup9\n      dup9\n      call\n      swap4\n      pop\n      pop\n      pop\n      pop\n      iszero\n      dup1\n      iszero\n      tag_63\n      jumpi\n      returndatacopy(0x00, 0x00, returndatasize)\n      revert(0x00, returndatasize)\n    tag_63:\n      pop\n        /* \"task2/BeggingContract.sol\":1276:1429  {... */\n      pop\n        /* \"task2/BeggingContract.sol\":1229:1429  function withdraw() external payable onlyOwner {... */\n      jump\t// out\n        /* \"task2/BeggingContract.sol\":1476:1653  function getDonation(address donorAddr) external view returns (uint){... */\n    tag_29:\n        /* \"task2/BeggingContract.sol\":1539:1543  uint */\n      0x00\n        /* \"task2/BeggingContract.sol\":1583:1584  0 */\n      0x00\n        /* \"task2/BeggingContract.sol\":1562:1585  donorAddr != address(0) */\n      0xffffffffffffffffffffffffffffffffffffffff\n      and\n        /* \"task2/BeggingContract.sol\":1562:1571  donorAddr */\n      dup3\n        /* \"task2/BeggingContract.sol\":1562:1585  donorAddr != address(0) */\n      0xffffffffffffffffffffffffffffffffffffffff\n      and\n      sub\n        /* \"task2/BeggingContract.sol\":1554:1605  require(donorAddr != address(0), 'address invilid') */\n      tag_65\n      jumpi\n      mload(0x40)\n      0x08c379a000000000000000000000000000000000000000000000000000000000\n      dup2\n      mstore\n      0x04\n      add\n      tag_66\n      swap1\n      tag_67\n      jump\t// in\n    tag_66:\n      mload(0x40)\n      dup1\n      swap2\n      sub\n      swap1\n      revert\n    tag_65:\n        /* \"task2/BeggingContract.sol\":1622:1635  donorsMapping */\n      0x01\n        /* \"task2/BeggingContract.sol\":1622:1646  donorsMapping[donorAddr] */\n      0x00\n        /* \"task2/BeggingContract.sol\":1636:1645  donorAddr */\n      dup4\n        /* \"task2/BeggingContract.sol\":1622:1646  donorsMapping[donorAddr] */\n      0xffffffffffffffffffffffffffffffffffffffff\n      and\n      0xffffffffffffffffffffffffffffffffffffffff\n      and\n      dup2\n      mstore\n      0x20\n      add\n      swap1\n      dup2\n      mstore\n      0x20\n      add\n      0x00\n      keccak256\n      sload\n        /* \"task2/BeggingContract.sol\":1615:1646  return donorsMapping[donorAddr] */\n      swap1\n      pop\n        /* \"task2/BeggingContract.sol\":1476:1653  function getDonation(address donorAddr) external view returns (uint){... */\n      swap2\n      swap1\n      pop\n      jump\t// out\n        /* \"task2/BeggingContract.sol\":1658:1765  function getContractBalance() external view returns (uint256) {... */\n    tag_33:\n        /* \"task2/BeggingContract.sol\":1711:1718  uint256 */\n      0x00\n        /* \"task2/BeggingContract.sol\":1737:1758  address(this).balance */\n      selfbalance\n        /* \"task2/BeggingContract.sol\":1730:1758  return address(this).balance */\n      swap1\n      pop\n        /* \"task2/BeggingContract.sol\":1658:1765  function getContractBalance() external view returns (uint256) {... */\n      swap1\n      jump\t// out\n        /* \"@openzeppelin/contracts/access/Ownable.sol\":2293:2394  function renounceOwnership() public virtual onlyOwner {... */\n    tag_37:\n        /* \"@openzeppelin/contracts/access/Ownable.sol\":1531:1544  _checkOwner() */\n      tag_70\n        /* \"@openzeppelin/contracts/access/Ownable.sol\":1531:1542  _checkOwner */\n      tag_56\n        /* \"@openzeppelin/contracts/access/Ownable.sol\":1531:1544  _checkOwner() */\n      jump\t// in\n    tag_70:\n        /* \"@openzeppelin/contracts/access/Ownable.sol\":2357:2387  _transferOwnership(address(0)) */\n      tag_72\n        /* \"@openzeppelin/contracts/access/Ownable.sol\":2384:2385  0 */\n      0x00\n        /* \"@openzeppelin/contracts/access/Ownable.sol\":2357:2375  _transferOwnership */\n      tag_73\n        /* \"@openzeppelin/contracts/access/Ownable.sol\":2357:2387  _transferOwnership(address(0)) */\n      jump\t// in\n    tag_72:\n        /* \"@openzeppelin/contracts/access/Ownable.sol\":2293:2394  function renounceOwnership() public virtual onlyOwner {... */\n      jump\t// out\n        /* \"@openzeppelin/contracts/access/Ownable.sol\":1638:1723  function owner() public view virtual returns (address) {... */\n    tag_40:\n        /* \"@openzeppelin/contracts/access/Ownable.sol\":1684:1691  address */\n      0x00\n        /* \"@openzeppelin/contracts/access/Ownable.sol\":1710:1716  _owner */\n      0x00\n      0x00\n      swap1\n      sload\n      swap1\n      0x0100\n      exp\n      swap1\n      div\n      0xffffffffffffffffffffffffffffffffffffffff\n      and\n        /* \"@openzeppelin/contracts/access/Ownable.sol\":1703:1716  return _owner */\n      swap1\n      pop\n        /* \"@openzeppelin/contracts/access/Ownable.sol\":1638:1723  function owner() public view virtual returns (address) {... */\n      swap1\n      jump\t// out\n        /* \"task2/BeggingContract.sol\":1815:2938  function queryTop3Donor() external view returns (address[3] memory) {... */\n    tag_45:\n        /* \"task2/BeggingContract.sol\":1864:1881  address[3] memory */\n      tag_75\n      tag_76\n      jump\t// in\n    tag_75:\n        /* \"task2/BeggingContract.sol\":1916:1917  0 */\n      0x00\n        /* \"task2/BeggingContract.sol\":1901:1907  donors */\n      0x02\n        /* \"task2/BeggingContract.sol\":1901:1914  donors.length */\n      dup1\n      sload\n      swap1\n      pop\n        /* \"task2/BeggingContract.sol\":1901:1917  donors.length >0 */\n      gt\n        /* \"task2/BeggingContract.sol\":1893:1939  require(donors.length >0, 'current no donors') */\n      tag_78\n      jumpi\n      mload(0x40)\n      0x08c379a000000000000000000000000000000000000000000000000000000000\n      dup2\n      mstore\n      0x04\n      add\n      tag_79\n      swap1\n      tag_80\n      jump\t// in\n    tag_79:\n      mload(0x40)\n      dup1\n      swap2\n      sub\n      swap1\n      revert\n    tag_78:\n        /* \"task2/BeggingContract.sol\":1949:1976  address[] memory tempDonors */\n      0x00\n        /* \"task2/BeggingContract.sol\":1993:1999  donors */\n      0x02\n        /* \"task2/BeggingContract.sol\":1993:2006  donors.length */\n      dup1\n      sload\n      swap1\n      pop\n        /* \"task2/BeggingContract.sol\":1979:2007  new address[](donors.length) */\n      0xffffffffffffffff\n      dup2\n      gt\n      iszero\n      tag_81\n      jumpi\n      tag_82\n      tag_83\n      jump\t// in\n    tag_82:\n    tag_81:\n      mload(0x40)\n      swap1\n      dup1\n      dup3\n      mstore\n      dup1\n      0x20\n      mul\n      0x20\n      add\n      dup3\n      add\n      0x40\n      mstore\n      dup1\n      iszero\n      tag_84\n      jumpi\n      dup2\n      0x20\n      add\n      0x20\n      dup3\n      mul\n      dup1\n      calldatasize\n      dup4\n      calldatacopy\n      dup1\n      dup3\n      add\n      swap2\n      pop\n      pop\n      swap1\n      pop\n    tag_84:\n      pop\n        /* \"task2/BeggingContract.sol\":1949:2007  address[] memory tempDonors = new address[](donors.length) */\n      swap1\n      pop\n        /* \"task2/BeggingContract.sol\":2017:2041  uint[] memory tempValues */\n      0x00\n        /* \"task2/BeggingContract.sol\":2055:2061  donors */\n      0x02\n        /* \"task2/BeggingContract.sol\":2055:2068  donors.length */\n      dup1\n      sload\n      swap1\n      pop\n        /* \"task2/BeggingContract.sol\":2044:2069  new uint[](donors.length) */\n      0xffffffffffffffff\n      dup2\n      gt\n      iszero\n      tag_85\n      jumpi\n      tag_86\n      tag_83\n      jump\t// in\n    tag_86:\n    tag_85:\n      mload(0x40)\n      swap1\n      dup1\n      dup3\n      mstore\n      dup1\n      0x20\n      mul\n      0x20\n      add\n      dup3\n      add\n      0x40\n      mstore\n      dup1\n      iszero\n      tag_87\n      jumpi\n      dup2\n      0x20\n      add\n      0x20\n      dup3\n      mul\n      dup1\n      calldatasize\n      dup4\n      calldatacopy\n      dup1\n      dup3\n      add\n      swap2\n      pop\n      pop\n      swap1\n      pop\n    tag_87:\n      pop\n        /* \"task2/BeggingContract.sol\":2017:2069  uint[] memory tempValues = new uint[](donors.length) */\n      swap1\n      pop\n        /* \"task2/BeggingContract.sol\":2084:2090  uint i */\n      0x00\n        /* \"task2/BeggingContract.sol\":2091:2092  0 */\n      0x00\n        /* \"task2/BeggingContract.sol\":2084:2092  uint i=0 */\n      swap1\n      pop\n        /* \"task2/BeggingContract.sol\":2079:2229  for (uint i=0; i<donors.length; i++) ... */\n    tag_88:\n        /* \"task2/BeggingContract.sol\":2096:2102  donors */\n      0x02\n        /* \"task2/BeggingContract.sol\":2096:2109  donors.length */\n      dup1\n      sload\n      swap1\n      pop\n        /* \"task2/BeggingContract.sol\":2094:2095  i */\n      dup2\n        /* \"task2/BeggingContract.sol\":2094:2109  i<donors.length */\n      lt\n        /* \"task2/BeggingContract.sol\":2079:2229  for (uint i=0; i<donors.length; i++) ... */\n      iszero\n      tag_89\n      jumpi\n        /* \"task2/BeggingContract.sol\":2155:2161  donors */\n      0x02\n        /* \"task2/BeggingContract.sol\":2162:2163  i */\n      dup2\n        /* \"task2/BeggingContract.sol\":2155:2164  donors[i] */\n      dup2\n      sload\n      dup2\n      lt\n      tag_91\n      jumpi\n      tag_92\n      tag_93\n      jump\t// in\n    tag_92:\n    tag_91:\n      swap1\n      0x00\n      mstore\n      keccak256(0x00, 0x20)\n      add\n      0x00\n      swap1\n      sload\n      swap1\n      0x0100\n      exp\n      swap1\n      div\n      0xffffffffffffffffffffffffffffffffffffffff\n      and\n        /* \"task2/BeggingContract.sol\":2139:2149  tempDonors */\n      dup4\n        /* \"task2/BeggingContract.sol\":2150:2151  i */\n      dup3\n        /* \"task2/BeggingContract.sol\":2139:2152  tempDonors[i] */\n      dup2\n      mload\n      dup2\n      lt\n      tag_95\n      jumpi\n      tag_96\n      tag_93\n      jump\t// in\n    tag_96:\n    tag_95:\n      0x20\n      mul\n      0x20\n      add\n      add\n        /* \"task2/BeggingContract.sol\":2139:2164  tempDonors[i] = donors[i] */\n      swap1\n      0xffffffffffffffffffffffffffffffffffffffff\n      and\n      swap1\n      dup2\n      0xffffffffffffffffffffffffffffffffffffffff\n      and\n      dup2\n      mstore\n      pop\n      pop\n        /* \"task2/BeggingContract.sol\":2194:2207  donorsMapping */\n      0x01\n        /* \"task2/BeggingContract.sol\":2194:2218  donorsMapping[donors[i]] */\n      0x00\n        /* \"task2/BeggingContract.sol\":2208:2214  donors */\n      0x02\n        /* \"task2/BeggingContract.sol\":2215:2216  i */\n      dup4\n        /* \"task2/BeggingContract.sol\":2208:2217  donors[i] */\n      dup2\n      sload\n      dup2\n      lt\n      tag_97\n      jumpi\n      tag_98\n      tag_93\n      jump\t// in\n    tag_98:\n    tag_97:\n      swap1\n      0x00\n      mstore\n      keccak256(0x00, 0x20)\n      add\n      0x00\n      swap1\n      sload\n      swap1\n      0x0100\n      exp\n      swap1\n      div\n      0xffffffffffffffffffffffffffffffffffffffff\n      and\n        /* \"task2/BeggingContract.sol\":2194:2218  donorsMapping[donors[i]] */\n      0xffffffffffffffffffffffffffffffffffffffff\n      and\n      0xffffffffffffffffffffffffffffffffffffffff\n      and\n      dup2\n      mstore\n      0x20\n      add\n      swap1\n      dup2\n      mstore\n      0x20\n      add\n      0x00\n      keccak256\n      sload\n        /* \"task2/BeggingContract.sol\":2178:2188  tempValues */\n      dup3\n        /* \"task2/BeggingContract.sol\":2189:2190  i */\n      dup3\n        /* \"task2/BeggingContract.sol\":2178:2191  tempValues[i] */\n      dup2\n      mload\n      dup2\n      lt\n      tag_100\n      jumpi\n      tag_101\n      tag_93\n      jump\t// in\n    tag_101:\n    tag_100:\n      0x20\n      mul\n      0x20\n      add\n      add\n        /* \"task2/BeggingContract.sol\":2178:2218  tempValues[i] = donorsMapping[donors[i]] */\n      dup2\n      dup2\n      mstore\n      pop\n      pop\n        /* \"task2/BeggingContract.sol\":2111:2114  i++ */\n      dup1\n      dup1\n      0x01\n      add\n      swap2\n      pop\n      pop\n        /* \"task2/BeggingContract.sol\":2079:2229  for (uint i=0; i<donors.length; i++) ... */\n      jump(tag_88)\n    tag_89:\n      pop\n        /* \"task2/BeggingContract.sol\":2243:2249  uint i */\n      0x00\n        /* \"task2/BeggingContract.sol\":2252:2253  0 */\n      0x00\n        /* \"task2/BeggingContract.sol\":2243:2253  uint i = 0 */\n      swap1\n      pop\n        /* \"task2/BeggingContract.sol\":2238:2712  for (uint i = 0; i < tempDonors.length - 1; i++) {... */\n    tag_102:\n        /* \"task2/BeggingContract.sol\":2279:2280  1 */\n      0x01\n        /* \"task2/BeggingContract.sol\":2259:2269  tempDonors */\n      dup4\n        /* \"task2/BeggingContract.sol\":2259:2276  tempDonors.length */\n      mload\n        /* \"task2/BeggingContract.sol\":2259:2280  tempDonors.length - 1 */\n      tag_105\n      swap2\n      swap1\n      tag_106\n      jump\t// in\n    tag_105:\n        /* \"task2/BeggingContract.sol\":2255:2256  i */\n      dup2\n        /* \"task2/BeggingContract.sol\":2255:2280  i < tempDonors.length - 1 */\n      lt\n        /* \"task2/BeggingContract.sol\":2238:2712  for (uint i = 0; i < tempDonors.length - 1; i++) {... */\n      iszero\n      tag_103\n      jumpi\n        /* \"task2/BeggingContract.sol\":2306:2312  uint j */\n      0x00\n        /* \"task2/BeggingContract.sol\":2315:2316  0 */\n      0x00\n        /* \"task2/BeggingContract.sol\":2306:2316  uint j = 0 */\n      swap1\n      pop\n        /* \"task2/BeggingContract.sol\":2301:2702  for (uint j = 0; j < tempDonors.length - i - 1; j++) {... */\n    tag_107:\n        /* \"task2/BeggingContract.sol\":2346:2347  1 */\n      0x01\n        /* \"task2/BeggingContract.sol\":2342:2343  i */\n      dup3\n        /* \"task2/BeggingContract.sol\":2322:2332  tempDonors */\n      dup6\n        /* \"task2/BeggingContract.sol\":2322:2339  tempDonors.length */\n      mload\n        /* \"task2/BeggingContract.sol\":2322:2343  tempDonors.length - i */\n      tag_110\n      swap2\n      swap1\n      tag_106\n      jump\t// in\n    tag_110:\n        /* \"task2/BeggingContract.sol\":2322:2347  tempDonors.length - i - 1 */\n      tag_111\n      swap2\n      swap1\n      tag_106\n      jump\t// in\n    tag_111:\n        /* \"task2/BeggingContract.sol\":2318:2319  j */\n      dup2\n        /* \"task2/BeggingContract.sol\":2318:2347  j < tempDonors.length - i - 1 */\n      lt\n        /* \"task2/BeggingContract.sol\":2301:2702  for (uint j = 0; j < tempDonors.length - i - 1; j++) {... */\n      iszero\n      tag_108\n      jumpi\n        /* \"task2/BeggingContract.sol\":2392:2402  tempValues */\n      dup3\n        /* \"task2/BeggingContract.sol\":2407:2408  1 */\n      0x01\n        /* \"task2/BeggingContract.sol\":2403:2404  j */\n      dup3\n        /* \"task2/BeggingContract.sol\":2403:2408  j + 1 */\n      tag_112\n      swap2\n      swap1\n      tag_20\n      jump\t// in\n    tag_112:\n        /* \"task2/BeggingContract.sol\":2392:2409  tempValues[j + 1] */\n      dup2\n      mload\n      dup2\n      lt\n      tag_113\n      jumpi\n      tag_114\n      tag_93\n      jump\t// in\n    tag_114:\n    tag_113:\n      0x20\n      mul\n      0x20\n      add\n      add\n      mload\n        /* \"task2/BeggingContract.sol\":2376:2386  tempValues */\n      dup4\n        /* \"task2/BeggingContract.sol\":2387:2388  j */\n      dup3\n        /* \"task2/BeggingContract.sol\":2376:2389  tempValues[j] */\n      dup2\n      mload\n      dup2\n      lt\n      tag_115\n      jumpi\n      tag_116\n      tag_93\n      jump\t// in\n    tag_116:\n    tag_115:\n      0x20\n      mul\n      0x20\n      add\n      add\n      mload\n        /* \"task2/BeggingContract.sol\":2376:2409  tempValues[j] < tempValues[j + 1] */\n      lt\n        /* \"task2/BeggingContract.sol\":2372:2688  if (tempValues[j] < tempValues[j + 1]) {... */\n      iszero\n      tag_117\n      jumpi\n        /* \"task2/BeggingContract.sol\":2507:2517  tempValues */\n      dup3\n        /* \"task2/BeggingContract.sol\":2522:2523  1 */\n      0x01\n        /* \"task2/BeggingContract.sol\":2518:2519  j */\n      dup3\n        /* \"task2/BeggingContract.sol\":2518:2523  j + 1 */\n      tag_118\n      swap2\n      swap1\n      tag_20\n      jump\t// in\n    tag_118:\n        /* \"task2/BeggingContract.sol\":2507:2524  tempValues[j + 1] */\n      dup2\n      mload\n      dup2\n      lt\n      tag_119\n      jumpi\n      tag_120\n      tag_93\n      jump\t// in\n    tag_120:\n    tag_119:\n      0x20\n      mul\n      0x20\n      add\n      add\n      mload\n        /* \"task2/BeggingContract.sol\":2526:2536  tempValues */\n      dup4\n        /* \"task2/BeggingContract.sol\":2537:2538  j */\n      dup3\n        /* \"task2/BeggingContract.sol\":2526:2539  tempValues[j] */\n      dup2\n      mload\n      dup2\n      lt\n      tag_121\n      jumpi\n      tag_122\n      tag_93\n      jump\t// in\n    tag_122:\n    tag_121:\n      0x20\n      mul\n      0x20\n      add\n      add\n      mload\n        /* \"task2/BeggingContract.sol\":2470:2480  tempValues */\n      dup5\n        /* \"task2/BeggingContract.sol\":2481:2482  j */\n      dup4\n        /* \"task2/BeggingContract.sol\":2470:2483  tempValues[j] */\n      dup2\n      mload\n      dup2\n      lt\n      tag_123\n      jumpi\n      tag_124\n      tag_93\n      jump\t// in\n    tag_124:\n    tag_123:\n      0x20\n      mul\n      0x20\n      add\n      add\n        /* \"task2/BeggingContract.sol\":2485:2495  tempValues */\n      dup6\n        /* \"task2/BeggingContract.sol\":2500:2501  1 */\n      0x01\n        /* \"task2/BeggingContract.sol\":2496:2497  j */\n      dup6\n        /* \"task2/BeggingContract.sol\":2496:2501  j + 1 */\n      tag_125\n      swap2\n      swap1\n      tag_20\n      jump\t// in\n    tag_125:\n        /* \"task2/BeggingContract.sol\":2485:2502  tempValues[j + 1] */\n      dup2\n      mload\n      dup2\n      lt\n      tag_126\n      jumpi\n      tag_127\n      tag_93\n      jump\t// in\n    tag_127:\n    tag_126:\n      0x20\n      mul\n      0x20\n      add\n      add\n        /* \"task2/BeggingContract.sol\":2469:2540  (tempValues[j], tempValues[j + 1]) = (tempValues[j + 1], tempValues[j]) */\n      dup3\n      dup2\n      mstore\n      pop\n      dup3\n      dup2\n      mstore\n      pop\n      pop\n      pop\n        /* \"task2/BeggingContract.sol\":2636:2646  tempDonors */\n      dup4\n        /* \"task2/BeggingContract.sol\":2651:2652  1 */\n      0x01\n        /* \"task2/BeggingContract.sol\":2647:2648  j */\n      dup3\n        /* \"task2/BeggingContract.sol\":2647:2652  j + 1 */\n      tag_128\n      swap2\n      swap1\n      tag_20\n      jump\t// in\n    tag_128:\n        /* \"task2/BeggingContract.sol\":2636:2653  tempDonors[j + 1] */\n      dup2\n      mload\n      dup2\n      lt\n      tag_129\n      jumpi\n      tag_130\n      tag_93\n      jump\t// in\n    tag_130:\n    tag_129:\n      0x20\n      mul\n      0x20\n      add\n      add\n      mload\n        /* \"task2/BeggingContract.sol\":2655:2665  tempDonors */\n      dup5\n        /* \"task2/BeggingContract.sol\":2666:2667  j */\n      dup3\n        /* \"task2/BeggingContract.sol\":2655:2668  tempDonors[j] */\n      dup2\n      mload\n      dup2\n      lt\n      tag_131\n      jumpi\n      tag_132\n      tag_93\n      jump\t// in\n    tag_132:\n    tag_131:\n      0x20\n      mul\n      0x20\n      add\n      add\n      mload\n        /* \"task2/BeggingContract.sol\":2599:2609  tempDonors */\n      dup6\n        /* \"task2/BeggingContract.sol\":2610:2611  j */\n      dup4\n        /* \"task2/BeggingContract.sol\":2599:2612  tempDonors[j] */\n      dup2\n      mload\n      dup2\n      lt\n      tag_133\n      jumpi\n      tag_134\n      tag_93\n      jump\t// in\n    tag_134:\n    tag_133:\n      0x20\n      mul\n      0x20\n      add\n      add\n        /* \"task2/BeggingContract.sol\":2614:2624  tempDonors */\n      dup7\n        /* \"task2/BeggingContract.sol\":2629:2630  1 */\n      0x01\n        /* \"task2/BeggingContract.sol\":2625:2626  j */\n      dup6\n        /* \"task2/BeggingContract.sol\":2625:2630  j + 1 */\n      tag_135\n      swap2\n      swap1\n      tag_20\n      jump\t// in\n    tag_135:\n        /* \"task2/BeggingContract.sol\":2614:2631  tempDonors[j + 1] */\n      dup2\n      mload\n      dup2\n      lt\n      tag_136\n      jumpi\n      tag_137\n      tag_93\n      jump\t// in\n    tag_137:\n    tag_136:\n      0x20\n      mul\n      0x20\n      add\n      add\n        /* \"task2/BeggingContract.sol\":2598:2669  (tempDonors[j], tempDonors[j + 1]) = (tempDonors[j + 1], tempDonors[j]) */\n      dup3\n      0xffffffffffffffffffffffffffffffffffffffff\n      and\n      0xffffffffffffffffffffffffffffffffffffffff\n      and\n      dup2\n      mstore\n      pop\n      dup3\n      0xffffffffffffffffffffffffffffffffffffffff\n      and\n      0xffffffffffffffffffffffffffffffffffffffff\n      and\n      dup2\n      mstore\n      pop\n      pop\n      pop\n        /* \"task2/BeggingContract.sol\":2372:2688  if (tempValues[j] < tempValues[j + 1]) {... */\n    tag_117:\n        /* \"task2/BeggingContract.sol\":2349:2352  j++ */\n      dup1\n      dup1\n      0x01\n      add\n      swap2\n      pop\n      pop\n        /* \"task2/BeggingContract.sol\":2301:2702  for (uint j = 0; j < tempDonors.length - i - 1; j++) {... */\n      jump(tag_107)\n    tag_108:\n      pop\n        /* \"task2/BeggingContract.sol\":2282:2285  i++ */\n      dup1\n      dup1\n      0x01\n      add\n      swap2\n      pop\n      pop\n        /* \"task2/BeggingContract.sol\":2238:2712  for (uint i = 0; i < tempDonors.length - 1; i++) {... */\n      jump(tag_102)\n    tag_103:\n      pop\n        /* \"task2/BeggingContract.sol\":2721:2743  address[3] memory top3 */\n      tag_138\n      tag_76\n      jump\t// in\n    tag_138:\n        /* \"task2/BeggingContract.sol\":2753:2766  uint256 count */\n      0x00\n        /* \"task2/BeggingContract.sol\":2789:2790  3 */\n      0x03\n        /* \"task2/BeggingContract.sol\":2769:2779  tempDonors */\n      dup5\n        /* \"task2/BeggingContract.sol\":2769:2786  tempDonors.length */\n      mload\n        /* \"task2/BeggingContract.sol\":2769:2790  tempDonors.length < 3 */\n      lt\n        /* \"task2/BeggingContract.sol\":2769:2814  tempDonors.length < 3 ? tempDonors.length : 3 */\n      tag_139\n      jumpi\n        /* \"task2/BeggingContract.sol\":2813:2814  3 */\n      0x03\n        /* \"task2/BeggingContract.sol\":2769:2814  tempDonors.length < 3 ? tempDonors.length : 3 */\n      jump(tag_140)\n    tag_139:\n        /* \"task2/BeggingContract.sol\":2793:2803  tempDonors */\n      dup4\n        /* \"task2/BeggingContract.sol\":2793:2810  tempDonors.length */\n      mload\n        /* \"task2/BeggingContract.sol\":2769:2814  tempDonors.length < 3 ? tempDonors.length : 3 */\n    tag_140:\n        /* \"task2/BeggingContract.sol\":2753:2814  uint256 count = tempDonors.length < 3 ? tempDonors.length : 3 */\n      swap1\n      pop\n        /* \"task2/BeggingContract.sol\":2829:2835  uint i */\n      0x00\n        /* \"task2/BeggingContract.sol\":2836:2837  0 */\n      0x00\n        /* \"task2/BeggingContract.sol\":2829:2837  uint i=0 */\n      swap1\n      pop\n        /* \"task2/BeggingContract.sol\":2824:2911  for (uint i=0; i<count ; i++) ... */\n    tag_141:\n        /* \"task2/BeggingContract.sol\":2841:2846  count */\n      dup2\n        /* \"task2/BeggingContract.sol\":2839:2840  i */\n      dup2\n        /* \"task2/BeggingContract.sol\":2839:2846  i<count */\n      lt\n        /* \"task2/BeggingContract.sol\":2824:2911  for (uint i=0; i<count ; i++) ... */\n      iszero\n      tag_142\n      jumpi\n        /* \"task2/BeggingContract.sol\":2887:2897  tempDonors */\n      dup5\n        /* \"task2/BeggingContract.sol\":2898:2899  i */\n      dup2\n        /* \"task2/BeggingContract.sol\":2887:2900  tempDonors[i] */\n      dup2\n      mload\n      dup2\n      lt\n      tag_144\n      jumpi\n      tag_145\n      tag_93\n      jump\t// in\n    tag_145:\n    tag_144:\n      0x20\n      mul\n      0x20\n      add\n      add\n      mload\n        /* \"task2/BeggingContract.sol\":2877:2881  top3 */\n      dup4\n        /* \"task2/BeggingContract.sol\":2882:2883  i */\n      dup3\n        /* \"task2/BeggingContract.sol\":2877:2884  top3[i] */\n      0x03\n      dup2\n      lt\n      tag_146\n      jumpi\n      tag_147\n      tag_93\n      jump\t// in\n    tag_147:\n    tag_146:\n      0x20\n      mul\n      add\n        /* \"task2/BeggingContract.sol\":2877:2900  top3[i] = tempDonors[i] */\n      swap1\n      0xffffffffffffffffffffffffffffffffffffffff\n      and\n      swap1\n      dup2\n      0xffffffffffffffffffffffffffffffffffffffff\n      and\n      dup2\n      mstore\n      pop\n      pop\n        /* \"task2/BeggingContract.sol\":2849:2852  i++ */\n      dup1\n      dup1\n      0x01\n      add\n      swap2\n      pop\n      pop\n        /* \"task2/BeggingContract.sol\":2824:2911  for (uint i=0; i<count ; i++) ... */\n      jump(tag_141)\n    tag_142:\n      pop\n        /* \"task2/BeggingContract.sol\":2927:2931  top3 */\n      dup2\n        /* \"task2/BeggingContract.sol\":2920:2931  return top3 */\n      swap5\n      pop\n      pop\n      pop\n      pop\n      pop\n        /* \"task2/BeggingContract.sol\":1815:2938  function queryTop3Donor() external view returns (address[3] memory) {... */\n      swap1\n      jump\t// out\n        /* \"task2/BeggingContract.sol\":575:858  function donate() external payable {... */\n    tag_49:\n        /* \"task2/BeggingContract.sol\":640:641  0 */\n      0x00\n        /* \"task2/BeggingContract.sol\":628:637  msg.value */\n      callvalue\n        /* \"task2/BeggingContract.sol\":628:641  msg.value > 0 */\n      gt\n        /* \"task2/BeggingContract.sol\":620:660  require(msg.value > 0, 'donate must >0') */\n      tag_149\n      jumpi\n      mload(0x40)\n      0x08c379a000000000000000000000000000000000000000000000000000000000\n      dup2\n      mstore\n      0x04\n      add\n      tag_150\n      swap1\n      tag_151\n      jump\t// in\n    tag_150:\n      mload(0x40)\n      dup1\n      swap2\n      sub\n      swap1\n      revert\n    tag_149:\n        /* \"task2/BeggingContract.sol\":702:703  0 */\n      0x00\n        /* \"task2/BeggingContract.sol\":673:686  donorsMapping */\n      0x01\n        /* \"task2/BeggingContract.sol\":673:698  donorsMapping[msg.sender] */\n      0x00\n        /* \"task2/BeggingContract.sol\":687:697  msg.sender */\n      caller\n        /* \"task2/BeggingContract.sol\":673:698  donorsMapping[msg.sender] */\n      0xffffffffffffffffffffffffffffffffffffffff\n      and\n      0xffffffffffffffffffffffffffffffffffffffff\n      and\n      dup2\n      mstore\n      0x20\n      add\n      swap1\n      dup2\n      mstore\n      0x20\n      add\n      0x00\n      keccak256\n      sload\n        /* \"task2/BeggingContract.sol\":673:703  donorsMapping[msg.sender] == 0 */\n      sub\n        /* \"task2/BeggingContract.sol\":670:752  if(donorsMapping[msg.sender] == 0){... */\n      tag_152\n      jumpi\n        /* \"task2/BeggingContract.sol\":718:724  donors */\n      0x02\n        /* \"task2/BeggingContract.sol\":730:740  msg.sender */\n      caller\n        /* \"task2/BeggingContract.sol\":718:741  donors.push(msg.sender) */\n      swap1\n      dup1\n      0x01\n      dup2\n      sload\n      add\n      dup1\n      dup3\n      sstore\n      dup1\n      swap2\n      pop\n      pop\n      0x01\n      swap1\n      sub\n      swap1\n      0x00\n      mstore\n      keccak256(0x00, 0x20)\n      add\n      0x00\n      swap1\n      swap2\n      swap1\n      swap2\n      swap1\n      swap2\n      0x0100\n      exp\n      dup2\n      sload\n      dup2\n      0xffffffffffffffffffffffffffffffffffffffff\n      mul\n      not\n      and\n      swap1\n      dup4\n      0xffffffffffffffffffffffffffffffffffffffff\n      and\n      mul\n      or\n      swap1\n      sstore\n      pop\n        /* \"task2/BeggingContract.sol\":670:752  if(donorsMapping[msg.sender] == 0){... */\n    tag_152:\n        /* \"task2/BeggingContract.sol\":790:799  msg.value */\n      callvalue\n        /* \"task2/BeggingContract.sol\":761:774  donorsMapping */\n      0x01\n        /* \"task2/BeggingContract.sol\":761:786  donorsMapping[msg.sender] */\n      0x00\n        /* \"task2/BeggingContract.sol\":775:785  msg.sender */\n      caller\n        /* \"task2/BeggingContract.sol\":761:786  donorsMapping[msg.sender] */\n      0xffffffffffffffffffffffffffffffffffffffff\n      and\n      0xffffffffffffffffffffffffffffffffffffffff\n      and\n      dup2\n      mstore\n      0x20\n      add\n      swap1\n      dup2\n      mstore\n      0x20\n      add\n      0x00\n      keccak256\n      0x00\n        /* \"task2/BeggingContract.sol\":761:799  donorsMapping[msg.sender] += msg.value */\n      dup3\n      dup3\n      sload\n      tag_154\n      swap2\n      swap1\n      tag_20\n      jump\t// in\n    tag_154:\n      swap3\n      pop\n      pop\n      dup2\n      swap1\n      sstore\n      pop\n        /* \"task2/BeggingContract.sol\":829:839  msg.sender */\n      caller\n        /* \"task2/BeggingContract.sol\":814:851  DonateReceived(msg.sender, msg.value) */\n      0xffffffffffffffffffffffffffffffffffffffff\n      and\n      0x313dc944d67ae2de3cd7539bfa6b5e62c8a287eacae6cda7a14ce97118770ab6\n        /* \"task2/BeggingContract.sol\":841:850  msg.value */\n      callvalue\n        /* \"task2/BeggingContract.sol\":814:851  DonateReceived(msg.sender, msg.value) */\n      mload(0x40)\n      tag_155\n      swap2\n      swap1\n      tag_22\n      jump\t// in\n    tag_155:\n      mload(0x40)\n      dup1\n      swap2\n      sub\n      swap1\n      log2\n        /* \"task2/BeggingContract.sol\":575:858  function donate() external payable {... */\n      jump\t// out\n        /* \"@openzeppelin/contracts/access/Ownable.sol\":2543:2758  function transferOwnership(address newOwner) public virtual onlyOwner {... */\n    tag_53:\n        /* \"@openzeppelin/contracts/access/Ownable.sol\":1531:1544  _checkOwner() */\n      tag_157\n        /* \"@openzeppelin/contracts/access/Ownable.sol\":1531:1542  _checkOwner */\n      tag_56\n        /* \"@openzeppelin/contracts/access/Ownable.sol\":1531:1544  _checkOwner() */\n      jump\t// in\n    tag_157:\n        /* \"@openzeppelin/contracts/access/Ownable.sol\":2647:2648  0 */\n      0x00\n        /* \"@openzeppelin/contracts/access/Ownable.sol\":2627:2649  newOwner == address(0) */\n      0xffffffffffffffffffffffffffffffffffffffff\n      and\n        /* \"@openzeppelin/contracts/access/Ownable.sol\":2627:2635  newOwner */\n      dup2\n        /* \"@openzeppelin/contracts/access/Ownable.sol\":2627:2649  newOwner == address(0) */\n      0xffffffffffffffffffffffffffffffffffffffff\n      and\n      sub\n        /* \"@openzeppelin/contracts/access/Ownable.sol\":2623:2714  if (newOwner == address(0)) {... */\n      tag_159\n      jumpi\n        /* \"@openzeppelin/contracts/access/Ownable.sol\":2700:2701  0 */\n      0x00\n        /* \"@openzeppelin/contracts/access/Ownable.sol\":2672:2703  OwnableInvalidOwner(address(0)) */\n      mload(0x40)\n      0x1e4fbdf700000000000000000000000000000000000000000000000000000000\n      dup2\n      mstore\n      0x04\n      add\n      tag_160\n      swap2\n      swap1\n      tag_42\n      jump\t// in\n    tag_160:\n      mload(0x40)\n      dup1\n      swap2\n      sub\n      swap1\n      revert\n        /* \"@openzeppelin/contracts/access/Ownable.sol\":2623:2714  if (newOwner == address(0)) {... */\n    tag_159:\n        /* \"@openzeppelin/contracts/access/Ownable.sol\":2723:2751  _transferOwnership(newOwner) */\n      tag_161\n        /* \"@openzeppelin/contracts/access/Ownable.sol\":2742:2750  newOwner */\n      dup2\n        /* \"@openzeppelin/contracts/access/Ownable.sol\":2723:2741  _transferOwnership */\n      tag_73\n        /* \"@openzeppelin/contracts/access/Ownable.sol\":2723:2751  _transferOwnership(newOwner) */\n      jump\t// in\n    tag_161:\n        /* \"@openzeppelin/contracts/access/Ownable.sol\":2543:2758  function transferOwnership(address newOwner) public virtual onlyOwner {... */\n      pop\n      jump\t// out\n        /* \"@openzeppelin/contracts/access/Ownable.sol\":1796:1958  function _checkOwner() internal view virtual {... */\n    tag_56:\n        /* \"@openzeppelin/contracts/access/Ownable.sol\":1866:1878  _msgSender() */\n      tag_163\n        /* \"@openzeppelin/contracts/access/Ownable.sol\":1866:1876  _msgSender */\n      tag_164\n        /* \"@openzeppelin/contracts/access/Ownable.sol\":1866:1878  _msgSender() */\n      jump\t// in\n    tag_163:\n        /* \"@openzeppelin/contracts/access/Ownable.sol\":1855:1878  owner() != _msgSender() */\n      0xffffffffffffffffffffffffffffffffffffffff\n      and\n        /* \"@openzeppelin/contracts/access/Ownable.sol\":1855:1862  owner() */\n      tag_165\n        /* \"@openzeppelin/contracts/access/Ownable.sol\":1855:1860  owner */\n      tag_40\n        /* \"@openzeppelin/contracts/access/Ownable.sol\":1855:1862  owner() */\n      jump\t// in\n    tag_165:\n        /* \"@openzeppelin/contracts/access/Ownable.sol\":1855:1878  owner() != _msgSender() */\n      0xffffffffffffffffffffffffffffffffffffffff\n      and\n      eq\n        /* \"@openzeppelin/contracts/access/Ownable.sol\":1851:1952  if (owner() != _msgSender()) {... */\n      tag_166\n      jumpi\n        /* \"@openzeppelin/contracts/access/Ownable.sol\":1928:1940  _msgSender() */\n      tag_167\n        /* \"@openzeppelin/contracts/access/Ownable.sol\":1928:1938  _msgSender */\n      tag_164\n        /* \"@openzeppelin/contracts/access/Ownable.sol\":1928:1940  _msgSender() */\n      jump\t// in\n    tag_167:\n        /* \"@openzeppelin/contracts/access/Ownable.sol\":1901:1941  OwnableUnauthorizedAccount(_msgSender()) */\n      mload(0x40)\n      0x118cdaa700000000000000000000000000000000000000000000000000000000\n      dup2\n      mstore\n      0x04\n      add\n      tag_168\n      swap2\n      swap1\n      tag_42\n      jump\t// in\n    tag_168:\n      mload(0x40)\n      dup1\n      swap2\n      sub\n      swap1\n      revert\n        /* \"@openzeppelin/contracts/access/Ownable.sol\":1851:1952  if (owner() != _msgSender()) {... */\n    tag_166:\n        /* \"@openzeppelin/contracts/access/Ownable.sol\":1796:1958  function _checkOwner() internal view virtual {... */\n      jump\t// out\n        /* \"@openzeppelin/contracts/access/Ownable.sol\":2912:3099  function _transferOwnership(address newOwner) internal virtual {... */\n    tag_73:\n        /* \"@openzeppelin/contracts/access/Ownable.sol\":2985:3001  address oldOwner */\n      0x00\n        /* \"@openzeppelin/contracts/access/Ownable.sol\":3004:3010  _owner */\n      0x00\n      0x00\n      swap1\n      sload\n      swap1\n      0x0100\n      exp\n      swap1\n      div\n      0xffffffffffffffffffffffffffffffffffffffff\n      and\n        /* \"@openzeppelin/contracts/access/Ownable.sol\":2985:3010  address oldOwner = _owner */\n      swap1\n      pop\n        /* \"@openzeppelin/contracts/access/Ownable.sol\":3029:3037  newOwner */\n      dup2\n        /* \"@openzeppelin/contracts/access/Ownable.sol\":3020:3026  _owner */\n      0x00\n      0x00\n        /* \"@openzeppelin/contracts/access/Ownable.sol\":3020:3037  _owner = newOwner */\n      0x0100\n      exp\n      dup2\n      sload\n      dup2\n      0xffffffffffffffffffffffffffffffffffffffff\n      mul\n      not\n      and\n      swap1\n      dup4\n      0xffffffffffffffffffffffffffffffffffffffff\n      and\n      mul\n      or\n      swap1\n      sstore\n      pop\n        /* \"@openzeppelin/contracts/access/Ownable.sol\":3083:3091  newOwner */\n      dup2\n        /* \"@openzeppelin/contracts/access/Ownable.sol\":3052:3092  OwnershipTransferred(oldOwner, newOwner) */\n      0xffffffffffffffffffffffffffffffffffffffff\n      and\n        /* \"@openzeppelin/contracts/access/Ownable.sol\":3073:3081  oldOwner */\n      dup2\n        /* \"@openzeppelin/contracts/access/Ownable.sol\":3052:3092  OwnershipTransferred(oldOwner, newOwner) */\n      0xffffffffffffffffffffffffffffffffffffffff\n      and\n      0x8be0079c531659141344cd1fd0a4f28419497f9722a3daafe3b4186f6b6457e0\n      mload(0x40)\n      mload(0x40)\n      dup1\n      swap2\n      sub\n      swap1\n      log3\n        /* \"@openzeppelin/contracts/access/Ownable.sol\":2975:3099  {... */\n      pop\n        /* \"@openzeppelin/contracts/access/Ownable.sol\":2912:3099  function _transferOwnership(address newOwner) internal virtual {... */\n      pop\n      jump\t// out\n        /* \"@openzeppelin/contracts/utils/Context.sol\":656:752  function _msgSender() internal view virtual returns (address) {... */\n    tag_164:\n        /* \"@openzeppelin/contracts/utils/Context.sol\":709:716  address */\n      0x00\n        /* \"@openzeppelin/contracts/utils/Context.sol\":735:745  msg.sender */\n      caller\n        /* \"@openzeppelin/contracts/utils/Context.sol\":728:745  return msg.sender */\n      swap1\n      pop\n        /* \"@openzeppelin/contracts/utils/Context.sol\":656:752  function _msgSender() internal view virtual returns (address) {... */\n      swap1\n      jump\t// out\n    tag_76:\n      mload(0x40)\n      dup1\n      0x60\n      add\n      0x40\n      mstore\n      dup1\n      0x03\n      swap1\n      0x20\n      dup3\n      mul\n      dup1\n      calldatasize\n      dup4\n      calldatacopy\n      dup1\n      dup3\n      add\n      swap2\n      pop\n      pop\n      swap1\n      pop\n      pop\n      swap1\n      jump\t// out\n        /* \"#utility.yul\":7:176   */\n    tag_171:\n        /* \"#utility.yul\":91:102   */\n      0x00\n        /* \"#utility.yul\":125:131   */\n      dup3\n        /* \"#utility.yul\":120:123   */\n      dup3\n        /* \"#utility.yul\":113:132   */\n      mstore\n        /* \"#utility.yul\":165:169   */\n      0x20\n        /* \"#utility.yul\":160:163   */\n      dup3\n        /* \"#utility.yul\":156:170   */\n      add\n        /* \"#utility.yul\":141:170   */\n      swap1\n      pop\n        /* \"#utility.yul\":7:176   */\n      swap3\n      swap2\n      pop\n      pop\n      jump\t// out\n        /* \"#utility.yul\":182:349   */\n    tag_172:\n        /* \"#utility.yul\":322:341   */\n      0x6d73672076616c7565206d757374203e30000000000000000000000000000000\n        /* \"#utility.yul\":318:319   */\n      0x00\n        /* \"#utility.yul\":310:316   */\n      dup3\n        /* \"#utility.yul\":306:320   */\n      add\n        /* \"#utility.yul\":299:342   */\n      mstore\n        /* \"#utility.yul\":182:349   */\n      pop\n      jump\t// out\n        /* \"#utility.yul\":355:721   */\n    tag_173:\n        /* \"#utility.yul\":497:500   */\n      0x00\n        /* \"#utility.yul\":518:585   */\n      tag_204\n        /* \"#utility.yul\":582:584   */\n      0x11\n        /* \"#utility.yul\":577:580   */\n      dup4\n        /* \"#utility.yul\":518:585   */\n      tag_171\n      jump\t// in\n    tag_204:\n        /* \"#utility.yul\":511:585   */\n      swap2\n      pop\n        /* \"#utility.yul\":594:687   */\n      tag_205\n        /* \"#utility.yul\":683:686   */\n      dup3\n        /* \"#utility.yul\":594:687   */\n      tag_172\n      jump\t// in\n    tag_205:\n        /* \"#utility.yul\":712:714   */\n      0x20\n        /* \"#utility.yul\":707:710   */\n      dup3\n        /* \"#utility.yul\":703:715   */\n      add\n        /* \"#utility.yul\":696:715   */\n      swap1\n      pop\n        /* \"#utility.yul\":355:721   */\n      swap2\n      swap1\n      pop\n      jump\t// out\n        /* \"#utility.yul\":727:1146   */\n    tag_16:\n        /* \"#utility.yul\":893:897   */\n      0x00\n        /* \"#utility.yul\":931:933   */\n      0x20\n        /* \"#utility.yul\":920:929   */\n      dup3\n        /* \"#utility.yul\":916:934   */\n      add\n        /* \"#utility.yul\":908:934   */\n      swap1\n      pop\n        /* \"#utility.yul\":980:989   */\n      dup2\n        /* \"#utility.yul\":974:978   */\n      dup2\n        /* \"#utility.yul\":970:990   */\n      sub\n        /* \"#utility.yul\":966:967   */\n      0x00\n        /* \"#utility.yul\":955:964   */\n      dup4\n        /* \"#utility.yul\":951:968   */\n      add\n        /* \"#utility.yul\":944:991   */\n      mstore\n        /* \"#utility.yul\":1008:1139   */\n      tag_207\n        /* \"#utility.yul\":1134:1138   */\n      dup2\n        /* \"#utility.yul\":1008:1139   */\n      tag_173\n      jump\t// in\n    tag_207:\n        /* \"#utility.yul\":1000:1139   */\n      swap1\n      pop\n        /* \"#utility.yul\":727:1146   */\n      swap2\n      swap1\n      pop\n      jump\t// out\n        /* \"#utility.yul\":1152:1229   */\n    tag_174:\n        /* \"#utility.yul\":1189:1196   */\n      0x00\n        /* \"#utility.yul\":1218:1223   */\n      dup2\n        /* \"#utility.yul\":1207:1223   */\n      swap1\n      pop\n        /* \"#utility.yul\":1152:1229   */\n      swap2\n      swap1\n      pop\n      jump\t// out\n        /* \"#utility.yul\":1235:1415   */\n    tag_175:\n        /* \"#utility.yul\":1283:1360   */\n      0x4e487b7100000000000000000000000000000000000000000000000000000000\n        /* \"#utility.yul\":1280:1281   */\n      0x00\n        /* \"#utility.yul\":1273:1361   */\n      mstore\n        /* \"#utility.yul\":1380:1384   */\n      0x11\n        /* \"#utility.yul\":1377:1378   */\n      0x04\n        /* \"#utility.yul\":1370:1385   */\n      mstore\n        /* \"#utility.yul\":1404:1408   */\n      0x24\n        /* \"#utility.yul\":1401:1402   */\n      0x00\n        /* \"#utility.yul\":1394:1409   */\n      revert\n        /* \"#utility.yul\":1421:1612   */\n    tag_20:\n        /* \"#utility.yul\":1461:1464   */\n      0x00\n        /* \"#utility.yul\":1480:1500   */\n      tag_211\n        /* \"#utility.yul\":1498:1499   */\n      dup3\n        /* \"#utility.yul\":1480:1500   */\n      tag_174\n      jump\t// in\n    tag_211:\n        /* \"#utility.yul\":1475:1500   */\n      swap2\n      pop\n        /* \"#utility.yul\":1514:1534   */\n      tag_212\n        /* \"#utility.yul\":1532:1533   */\n      dup4\n        /* \"#utility.yul\":1514:1534   */\n      tag_174\n      jump\t// in\n    tag_212:\n        /* \"#utility.yul\":1509:1534   */\n      swap3\n      pop\n        /* \"#utility.yul\":1557:1558   */\n      dup3\n        /* \"#utility.yul\":1554:1555   */\n      dup3\n        /* \"#utility.yul\":1550:1559   */\n      add\n        /* \"#utility.yul\":1543:1559   */\n      swap1\n      pop\n        /* \"#utility.yul\":1578:1581   */\n      dup1\n        /* \"#utility.yul\":1575:1576   */\n      dup3\n        /* \"#utility.yul\":1572:1582   */\n      gt\n        /* \"#utility.yul\":1569:1605   */\n      iszero\n      tag_213\n      jumpi\n        /* \"#utility.yul\":1585:1603   */\n      tag_214\n      tag_175\n      jump\t// in\n    tag_214:\n        /* \"#utility.yul\":1569:1605   */\n    tag_213:\n        /* \"#utility.yul\":1421:1612   */\n      swap3\n      swap2\n      pop\n      pop\n      jump\t// out\n        /* \"#utility.yul\":1618:1736   */\n    tag_176:\n        /* \"#utility.yul\":1705:1729   */\n      tag_216\n        /* \"#utility.yul\":1723:1728   */\n      dup2\n        /* \"#utility.yul\":1705:1729   */\n      tag_174\n      jump\t// in\n    tag_216:\n        /* \"#utility.yul\":1700:1703   */\n      dup3\n        /* \"#utility.yul\":1693:1730   */\n      mstore\n        /* \"#utility.yul\":1618:1736   */\n      pop\n      pop\n      jump\t// out\n        /* \"#utility.yul\":1742:1964   */\n    tag_22:\n        /* \"#utility.yul\":1835:1839   */\n      0x00\n        /* \"#utility.yul\":1873:1875   */\n      0x20\n        /* \"#utility.yul\":1862:1871   */\n      dup3\n        /* \"#utility.yul\":1858:1876   */\n      add\n        /* \"#utility.yul\":1850:1876   */\n      swap1\n      pop\n        /* \"#utility.yul\":1886:1957   */\n      tag_218\n        /* \"#utility.yul\":1954:1955   */\n      0x00\n        /* \"#utility.yul\":1943:1952   */\n      dup4\n        /* \"#utility.yul\":1939:1956   */\n      add\n        /* \"#utility.yul\":1930:1936   */\n      dup5\n        /* \"#utility.yul\":1886:1957   */\n      tag_176\n      jump\t// in\n    tag_218:\n        /* \"#utility.yul\":1742:1964   */\n      swap3\n      swap2\n      pop\n      pop\n      jump\t// out\n        /* \"#utility.yul\":2051:2168   */\n    tag_178:\n        /* \"#utility.yul\":2160:2161   */\n      0x00\n        /* \"#utility.yul\":2157:2158   */\n      0x00\n        /* \"#utility.yul\":2150:2162   */\n      revert\n        /* \"#utility.yul\":2297:2423   */\n    tag_180:\n        /* \"#utility.yul\":2334:2341   */\n      0x00\n        /* \"#utility.yul\":2374:2416   */\n      0xffffffffffffffffffffffffffffffffffffffff\n        /* \"#utility.yul\":2367:2372   */\n      dup3\n        /* \"#utility.yul\":2363:2417   */\n      and\n        /* \"#utility.yul\":2352:2417   */\n      swap1\n      pop\n        /* \"#utility.yul\":2297:2423   */\n      swap2\n      swap1\n      pop\n      jump\t// out\n        /* \"#utility.yul\":2429:2525   */\n    tag_181:\n        /* \"#utility.yul\":2466:2473   */\n      0x00\n        /* \"#utility.yul\":2495:2519   */\n      tag_224\n        /* \"#utility.yul\":2513:2518   */\n      dup3\n        /* \"#utility.yul\":2495:2519   */\n      tag_180\n      jump\t// in\n    tag_224:\n        /* \"#utility.yul\":2484:2519   */\n      swap1\n      pop\n        /* \"#utility.yul\":2429:2525   */\n      swap2\n      swap1\n      pop\n      jump\t// out\n        /* \"#utility.yul\":2531:2653   */\n    tag_182:\n        /* \"#utility.yul\":2604:2628   */\n      tag_226\n        /* \"#utility.yul\":2622:2627   */\n      dup2\n        /* \"#utility.yul\":2604:2628   */\n      tag_181\n      jump\t// in\n    tag_226:\n        /* \"#utility.yul\":2597:2602   */\n      dup2\n        /* \"#utility.yul\":2594:2629   */\n      eq\n        /* \"#utility.yul\":2584:2647   */\n      tag_227\n      jumpi\n        /* \"#utility.yul\":2643:2644   */\n      0x00\n        /* \"#utility.yul\":2640:2641   */\n      0x00\n        /* \"#utility.yul\":2633:2645   */\n      revert\n        /* \"#utility.yul\":2584:2647   */\n    tag_227:\n        /* \"#utility.yul\":2531:2653   */\n      pop\n      jump\t// out\n        /* \"#utility.yul\":2659:2798   */\n    tag_183:\n        /* \"#utility.yul\":2705:2710   */\n      0x00\n        /* \"#utility.yul\":2743:2749   */\n      dup2\n        /* \"#utility.yul\":2730:2750   */\n      calldataload\n        /* \"#utility.yul\":2721:2750   */\n      swap1\n      pop\n        /* \"#utility.yul\":2759:2792   */\n      tag_229\n        /* \"#utility.yul\":2786:2791   */\n      dup2\n        /* \"#utility.yul\":2759:2792   */\n      tag_182\n      jump\t// in\n    tag_229:\n        /* \"#utility.yul\":2659:2798   */\n      swap3\n      swap2\n      pop\n      pop\n      jump\t// out\n        /* \"#utility.yul\":2804:3133   */\n    tag_28:\n        /* \"#utility.yul\":2863:2869   */\n      0x00\n        /* \"#utility.yul\":2912:2914   */\n      0x20\n        /* \"#utility.yul\":2900:2909   */\n      dup3\n        /* \"#utility.yul\":2891:2898   */\n      dup5\n        /* \"#utility.yul\":2887:2910   */\n      sub\n        /* \"#utility.yul\":2883:2915   */\n      slt\n        /* \"#utility.yul\":2880:2999   */\n      iszero\n      tag_231\n      jumpi\n        /* \"#utility.yul\":2918:2997   */\n      tag_232\n      tag_178\n      jump\t// in\n    tag_232:\n        /* \"#utility.yul\":2880:2999   */\n    tag_231:\n        /* \"#utility.yul\":3038:3039   */\n      0x00\n        /* \"#utility.yul\":3063:3116   */\n      tag_233\n        /* \"#utility.yul\":3108:3115   */\n      dup5\n        /* \"#utility.yul\":3099:3105   */\n      dup3\n        /* \"#utility.yul\":3088:3097   */\n      dup6\n        /* \"#utility.yul\":3084:3106   */\n      add\n        /* \"#utility.yul\":3063:3116   */\n      tag_183\n      jump\t// in\n    tag_233:\n        /* \"#utility.yul\":3053:3116   */\n      swap2\n      pop\n        /* \"#utility.yul\":3009:3126   */\n      pop\n        /* \"#utility.yul\":2804:3133   */\n      swap3\n      swap2\n      pop\n      pop\n      jump\t// out\n        /* \"#utility.yul\":3139:3257   */\n    tag_184:\n        /* \"#utility.yul\":3226:3250   */\n      tag_235\n        /* \"#utility.yul\":3244:3249   */\n      dup2\n        /* \"#utility.yul\":3226:3250   */\n      tag_181\n      jump\t// in\n    tag_235:\n        /* \"#utility.yul\":3221:3224   */\n      dup3\n        /* \"#utility.yul\":3214:3251   */\n      mstore\n        /* \"#utility.yul\":3139:3257   */\n      pop\n      pop\n      jump\t// out\n        /* \"#utility.yul\":3263:3485   */\n    tag_42:\n        /* \"#utility.yul\":3356:3360   */\n      0x00\n        /* \"#utility.yul\":3394:3396   */\n      0x20\n        /* \"#utility.yul\":3383:3392   */\n      dup3\n        /* \"#utility.yul\":3379:3397   */\n      add\n        /* \"#utility.yul\":3371:3397   */\n      swap1\n      pop\n        /* \"#utility.yul\":3407:3478   */\n      tag_237\n        /* \"#utility.yul\":3475:3476   */\n      0x00\n        /* \"#utility.yul\":3464:3473   */\n      dup4\n        /* \"#utility.yul\":3460:3477   */\n      add\n        /* \"#utility.yul\":3451:3457   */\n      dup5\n        /* \"#utility.yul\":3407:3478   */\n      tag_184\n      jump\t// in\n    tag_237:\n        /* \"#utility.yul\":3263:3485   */\n      swap3\n      swap2\n      pop\n      pop\n      jump\t// out\n        /* \"#utility.yul\":3491:3595   */\n    tag_185:\n        /* \"#utility.yul\":3556:3562   */\n      0x00\n        /* \"#utility.yul\":3584:3588   */\n      0x03\n        /* \"#utility.yul\":3574:3588   */\n      swap1\n      pop\n        /* \"#utility.yul\":3491:3595   */\n      swap2\n      swap1\n      pop\n      jump\t// out\n        /* \"#utility.yul\":3601:3744   */\n    tag_186:\n        /* \"#utility.yul\":3698:3709   */\n      0x00\n        /* \"#utility.yul\":3735:3738   */\n      dup2\n        /* \"#utility.yul\":3720:3738   */\n      swap1\n      pop\n        /* \"#utility.yul\":3601:3744   */\n      swap3\n      swap2\n      pop\n      pop\n      jump\t// out\n        /* \"#utility.yul\":3750:3848   */\n    tag_187:\n        /* \"#utility.yul\":3815:3819   */\n      0x00\n        /* \"#utility.yul\":3838:3841   */\n      dup2\n        /* \"#utility.yul\":3830:3841   */\n      swap1\n      pop\n        /* \"#utility.yul\":3750:3848   */\n      swap2\n      swap1\n      pop\n      jump\t// out\n        /* \"#utility.yul\":3854:3962   */\n    tag_188:\n        /* \"#utility.yul\":3931:3955   */\n      tag_242\n        /* \"#utility.yul\":3949:3954   */\n      dup2\n        /* \"#utility.yul\":3931:3955   */\n      tag_181\n      jump\t// in\n    tag_242:\n        /* \"#utility.yul\":3926:3929   */\n      dup3\n        /* \"#utility.yul\":3919:3956   */\n      mstore\n        /* \"#utility.yul\":3854:3962   */\n      pop\n      pop\n      jump\t// out\n        /* \"#utility.yul\":3968:4147   */\n    tag_189:\n        /* \"#utility.yul\":4037:4047   */\n      0x00\n        /* \"#utility.yul\":4058:4104   */\n      tag_244\n        /* \"#utility.yul\":4100:4103   */\n      dup4\n        /* \"#utility.yul\":4092:4098   */\n      dup4\n        /* \"#utility.yul\":4058:4104   */\n      tag_188\n      jump\t// in\n    tag_244:\n        /* \"#utility.yul\":4136:4140   */\n      0x20\n        /* \"#utility.yul\":4131:4134   */\n      dup4\n        /* \"#utility.yul\":4127:4141   */\n      add\n        /* \"#utility.yul\":4113:4141   */\n      swap1\n      pop\n        /* \"#utility.yul\":3968:4147   */\n      swap3\n      swap2\n      pop\n      pop\n      jump\t// out\n        /* \"#utility.yul\":4153:4264   */\n    tag_190:\n        /* \"#utility.yul\":4221:4225   */\n      0x00\n        /* \"#utility.yul\":4253:4257   */\n      0x20\n        /* \"#utility.yul\":4248:4251   */\n      dup3\n        /* \"#utility.yul\":4244:4258   */\n      add\n        /* \"#utility.yul\":4236:4258   */\n      swap1\n      pop\n        /* \"#utility.yul\":4153:4264   */\n      swap2\n      swap1\n      pop\n      jump\t// out\n        /* \"#utility.yul\":4302:4996   */\n    tag_191:\n        /* \"#utility.yul\":4438:4490   */\n      tag_247\n        /* \"#utility.yul\":4484:4489   */\n      dup2\n        /* \"#utility.yul\":4438:4490   */\n      tag_185\n      jump\t// in\n    tag_247:\n        /* \"#utility.yul\":4506:4590   */\n      tag_248\n        /* \"#utility.yul\":4583:4589   */\n      dup2\n        /* \"#utility.yul\":4578:4581   */\n      dup5\n        /* \"#utility.yul\":4506:4590   */\n      tag_186\n      jump\t// in\n    tag_248:\n        /* \"#utility.yul\":4499:4590   */\n      swap3\n      pop\n        /* \"#utility.yul\":4614:4668   */\n      tag_249\n        /* \"#utility.yul\":4662:4667   */\n      dup3\n        /* \"#utility.yul\":4614:4668   */\n      tag_187\n      jump\t// in\n    tag_249:\n        /* \"#utility.yul\":4691:4698   */\n      dup1\n        /* \"#utility.yul\":4722:4723   */\n      0x00\n        /* \"#utility.yul\":4707:4989   */\n    tag_250:\n        /* \"#utility.yul\":4732:4738   */\n      dup4\n        /* \"#utility.yul\":4729:4730   */\n      dup2\n        /* \"#utility.yul\":4726:4739   */\n      lt\n        /* \"#utility.yul\":4707:4989   */\n      iszero\n      tag_252\n      jumpi\n        /* \"#utility.yul\":4808:4814   */\n      dup2\n        /* \"#utility.yul\":4802:4815   */\n      mload\n        /* \"#utility.yul\":4835:4898   */\n      tag_253\n        /* \"#utility.yul\":4894:4897   */\n      dup8\n        /* \"#utility.yul\":4879:4892   */\n      dup3\n        /* \"#utility.yul\":4835:4898   */\n      tag_189\n      jump\t// in\n    tag_253:\n        /* \"#utility.yul\":4828:4898   */\n      swap7\n      pop\n        /* \"#utility.yul\":4921:4979   */\n      tag_254\n        /* \"#utility.yul\":4972:4978   */\n      dup4\n        /* \"#utility.yul\":4921:4979   */\n      tag_190\n      jump\t// in\n    tag_254:\n        /* \"#utility.yul\":4911:4979   */\n      swap3\n      pop\n        /* \"#utility.yul\":4767:4989   */\n      pop\n        /* \"#utility.yul\":4754:4755   */\n      0x01\n        /* \"#utility.yul\":4751:4752   */\n      dup2\n        /* \"#utility.yul\":4747:4756   */\n      add\n        /* \"#utility.yul\":4742:4756   */\n      swap1\n      pop\n        /* \"#utility.yul\":4707:4989   */\n      jump(tag_250)\n    tag_252:\n        /* \"#utility.yul\":4711:4725   */\n      pop\n        /* \"#utility.yul\":4414:4996   */\n      pop\n      pop\n      pop\n        /* \"#utility.yul\":4302:4996   */\n      pop\n      pop\n      jump\t// out\n        /* \"#utility.yul\":5002:5316   */\n    tag_47:\n        /* \"#utility.yul\":5141:5145   */\n      0x00\n        /* \"#utility.yul\":5179:5181   */\n      0x60\n        /* \"#utility.yul\":5168:5177   */\n      dup3\n        /* \"#utility.yul\":5164:5182   */\n      add\n        /* \"#utility.yul\":5156:5182   */\n      swap1\n      pop\n        /* \"#utility.yul\":5192:5309   */\n      tag_256\n        /* \"#utility.yul\":5306:5307   */\n      0x00\n        /* \"#utility.yul\":5295:5304   */\n      dup4\n        /* \"#utility.yul\":5291:5308   */\n      add\n        /* \"#utility.yul\":5282:5288   */\n      dup5\n        /* \"#utility.yul\":5192:5309   */\n      tag_191\n      jump\t// in\n    tag_256:\n        /* \"#utility.yul\":5002:5316   */\n      swap3\n      swap2\n      pop\n      pop\n      jump\t// out\n        /* \"#utility.yul\":5322:5494   */\n    tag_192:\n        /* \"#utility.yul\":5462:5486   */\n      0x6e6f2062616c616e636520746f20776974686472617700000000000000000000\n        /* \"#utility.yul\":5458:5459   */\n      0x00\n        /* \"#utility.yul\":5450:5456   */\n      dup3\n        /* \"#utility.yul\":5446:5460   */\n      add\n        /* \"#utility.yul\":5439:5487   */\n      mstore\n        /* \"#utility.yul\":5322:5494   */\n      pop\n      jump\t// out\n        /* \"#utility.yul\":5500:5866   */\n    tag_193:\n        /* \"#utility.yul\":5642:5645   */\n      0x00\n        /* \"#utility.yul\":5663:5730   */\n      tag_259\n        /* \"#utility.yul\":5727:5729   */\n      0x16\n        /* \"#utility.yul\":5722:5725   */\n      dup4\n        /* \"#utility.yul\":5663:5730   */\n      tag_171\n      jump\t// in\n    tag_259:\n        /* \"#utility.yul\":5656:5730   */\n      swap2\n      pop\n        /* \"#utility.yul\":5739:5832   */\n      tag_260\n        /* \"#utility.yul\":5828:5831   */\n      dup3\n        /* \"#utility.yul\":5739:5832   */\n      tag_192\n      jump\t// in\n    tag_260:\n        /* \"#utility.yul\":5857:5859   */\n      0x20\n        /* \"#utility.yul\":5852:5855   */\n      dup3\n        /* \"#utility.yul\":5848:5860   */\n      add\n        /* \"#utility.yul\":5841:5860   */\n      swap1\n      pop\n        /* \"#utility.yul\":5500:5866   */\n      swap2\n      swap1\n      pop\n      jump\t// out\n        /* \"#utility.yul\":5872:6291   */\n    tag_60:\n        /* \"#utility.yul\":6038:6042   */\n      0x00\n        /* \"#utility.yul\":6076:6078   */\n      0x20\n        /* \"#utility.yul\":6065:6074   */\n      dup3\n        /* \"#utility.yul\":6061:6079   */\n      add\n        /* \"#utility.yul\":6053:6079   */\n      swap1\n      pop\n        /* \"#utility.yul\":6125:6134   */\n      dup2\n        /* \"#utility.yul\":6119:6123   */\n      dup2\n        /* \"#utility.yul\":6115:6135   */\n      sub\n        /* \"#utility.yul\":6111:6112   */\n      0x00\n        /* \"#utility.yul\":6100:6109   */\n      dup4\n        /* \"#utility.yul\":6096:6113   */\n      add\n        /* \"#utility.yul\":6089:6136   */\n      mstore\n        /* \"#utility.yul\":6153:6284   */\n      tag_262\n        /* \"#utility.yul\":6279:6283   */\n      dup2\n        /* \"#utility.yul\":6153:6284   */\n      tag_193\n      jump\t// in\n    tag_262:\n        /* \"#utility.yul\":6145:6284   */\n      swap1\n      pop\n        /* \"#utility.yul\":5872:6291   */\n      swap2\n      swap1\n      pop\n      jump\t// out\n        /* \"#utility.yul\":6297:6462   */\n    tag_194:\n        /* \"#utility.yul\":6437:6454   */\n      0x6164647265737320696e76696c69640000000000000000000000000000000000\n        /* \"#utility.yul\":6433:6434   */\n      0x00\n        /* \"#utility.yul\":6425:6431   */\n      dup3\n        /* \"#utility.yul\":6421:6435   */\n      add\n        /* \"#utility.yul\":6414:6455   */\n      mstore\n        /* \"#utility.yul\":6297:6462   */\n      pop\n      jump\t// out\n        /* \"#utility.yul\":6468:6834   */\n    tag_195:\n        /* \"#utility.yul\":6610:6613   */\n      0x00\n        /* \"#utility.yul\":6631:6698   */\n      tag_265\n        /* \"#utility.yul\":6695:6697   */\n      0x0f\n        /* \"#utility.yul\":6690:6693   */\n      dup4\n        /* \"#utility.yul\":6631:6698   */\n      tag_171\n      jump\t// in\n    tag_265:\n        /* \"#utility.yul\":6624:6698   */\n      swap2\n      pop\n        /* \"#utility.yul\":6707:6800   */\n      tag_266\n        /* \"#utility.yul\":6796:6799   */\n      dup3\n        /* \"#utility.yul\":6707:6800   */\n      tag_194\n      jump\t// in\n    tag_266:\n        /* \"#utility.yul\":6825:6827   */\n      0x20\n        /* \"#utility.yul\":6820:6823   */\n      dup3\n        /* \"#utility.yul\":6816:6828   */\n      add\n        /* \"#utility.yul\":6809:6828   */\n      swap1\n      pop\n        /* \"#utility.yul\":6468:6834   */\n      swap2\n      swap1\n      pop\n      jump\t// out\n        /* \"#utility.yul\":6840:7259   */\n    tag_67:\n        /* \"#utility.yul\":7006:7010   */\n      0x00\n        /* \"#utility.yul\":7044:7046   */\n      0x20\n        /* \"#utility.yul\":7033:7042   */\n      dup3\n        /* \"#utility.yul\":7029:7047   */\n      add\n        /* \"#utility.yul\":7021:7047   */\n      swap1\n      pop\n        /* \"#utility.yul\":7093:7102   */\n      dup2\n        /* \"#utility.yul\":7087:7091   */\n      dup2\n        /* \"#utility.yul\":7083:7103   */\n      sub\n        /* \"#utility.yul\":7079:7080   */\n      0x00\n        /* \"#utility.yul\":7068:7077   */\n      dup4\n        /* \"#utility.yul\":7064:7081   */\n      add\n        /* \"#utility.yul\":7057:7104   */\n      mstore\n        /* \"#utility.yul\":7121:7252   */\n      tag_268\n        /* \"#utility.yul\":7247:7251   */\n      dup2\n        /* \"#utility.yul\":7121:7252   */\n      tag_195\n      jump\t// in\n    tag_268:\n        /* \"#utility.yul\":7113:7252   */\n      swap1\n      pop\n        /* \"#utility.yul\":6840:7259   */\n      swap2\n      swap1\n      pop\n      jump\t// out\n        /* \"#utility.yul\":7265:7432   */\n    tag_196:\n        /* \"#utility.yul\":7405:7424   */\n      0x63757272656e74206e6f20646f6e6f7273000000000000000000000000000000\n        /* \"#utility.yul\":7401:7402   */\n      0x00\n        /* \"#utility.yul\":7393:7399   */\n      dup3\n        /* \"#utility.yul\":7389:7403   */\n      add\n        /* \"#utility.yul\":7382:7425   */\n      mstore\n        /* \"#utility.yul\":7265:7432   */\n      pop\n      jump\t// out\n        /* \"#utility.yul\":7438:7804   */\n    tag_197:\n        /* \"#utility.yul\":7580:7583   */\n      0x00\n        /* \"#utility.yul\":7601:7668   */\n      tag_271\n        /* \"#utility.yul\":7665:7667   */\n      0x11\n        /* \"#utility.yul\":7660:7663   */\n      dup4\n        /* \"#utility.yul\":7601:7668   */\n      tag_171\n      jump\t// in\n    tag_271:\n        /* \"#utility.yul\":7594:7668   */\n      swap2\n      pop\n        /* \"#utility.yul\":7677:7770   */\n      tag_272\n        /* \"#utility.yul\":7766:7769   */\n      dup3\n        /* \"#utility.yul\":7677:7770   */\n      tag_196\n      jump\t// in\n    tag_272:\n        /* \"#utility.yul\":7795:7797   */\n      0x20\n        /* \"#utility.yul\":7790:7793   */\n      dup3\n        /* \"#utility.yul\":7786:7798   */\n      add\n        /* \"#utility.yul\":7779:7798   */\n      swap1\n      pop\n        /* \"#utility.yul\":7438:7804   */\n      swap2\n      swap1\n      pop\n      jump\t// out\n        /* \"#utility.yul\":7810:8229   */\n    tag_80:\n        /* \"#utility.yul\":7976:7980   */\n      0x00\n        /* \"#utility.yul\":8014:8016   */\n      0x20\n        /* \"#utility.yul\":8003:8012   */\n      dup3\n        /* \"#utility.yul\":7999:8017   */\n      add\n        /* \"#utility.yul\":7991:8017   */\n      swap1\n      pop\n        /* \"#utility.yul\":8063:8072   */\n      dup2\n        /* \"#utility.yul\":8057:8061   */\n      dup2\n        /* \"#utility.yul\":8053:8073   */\n      sub\n        /* \"#utility.yul\":8049:8050   */\n      0x00\n        /* \"#utility.yul\":8038:8047   */\n      dup4\n        /* \"#utility.yul\":8034:8051   */\n      add\n        /* \"#utility.yul\":8027:8074   */\n      mstore\n        /* \"#utility.yul\":8091:8222   */\n      tag_274\n        /* \"#utility.yul\":8217:8221   */\n      dup2\n        /* \"#utility.yul\":8091:8222   */\n      tag_197\n      jump\t// in\n    tag_274:\n        /* \"#utility.yul\":8083:8222   */\n      swap1\n      pop\n        /* \"#utility.yul\":7810:8229   */\n      swap2\n      swap1\n      pop\n      jump\t// out\n        /* \"#utility.yul\":8235:8415   */\n    tag_83:\n        /* \"#utility.yul\":8283:8360   */\n      0x4e487b7100000000000000000000000000000000000000000000000000000000\n        /* \"#utility.yul\":8280:8281   */\n      0x00\n        /* \"#utility.yul\":8273:8361   */\n      mstore\n        /* \"#utility.yul\":8380:8384   */\n      0x41\n        /* \"#utility.yul\":8377:8378   */\n      0x04\n        /* \"#utility.yul\":8370:8385   */\n      mstore\n        /* \"#utility.yul\":8404:8408   */\n      0x24\n        /* \"#utility.yul\":8401:8402   */\n      0x00\n        /* \"#utility.yul\":8394:8409   */\n      revert\n        /* \"#utility.yul\":8421:8601   */\n    tag_93:\n        /* \"#utility.yul\":8469:8546   */\n      0x4e487b7100000000000000000000000000000000000000000000000000000000\n        /* \"#utility.yul\":8466:8467   */\n      0x00\n        /* \"#utility.yul\":8459:8547   */\n      mstore\n        /* \"#utility.yul\":8566:8570   */\n      0x32\n        /* \"#utility.yul\":8563:8564   */\n      0x04\n        /* \"#utility.yul\":8556:8571   */\n      mstore\n        /* \"#utility.yul\":8590:8594   */\n      0x24\n        /* \"#utility.yul\":8587:8588   */\n      0x00\n        /* \"#utility.yul\":8580:8595   */\n      revert\n        /* \"#utility.yul\":8607:8801   */\n    tag_106:\n        /* \"#utility.yul\":8647:8651   */\n      0x00\n        /* \"#utility.yul\":8667:8687   */\n      tag_278\n        /* \"#utility.yul\":8685:8686   */\n      dup3\n        /* \"#utility.yul\":8667:8687   */\n      tag_174\n      jump\t// in\n    tag_278:\n        /* \"#utility.yul\":8662:8687   */\n      swap2\n      pop\n        /* \"#utility.yul\":8701:8721   */\n      tag_279\n        /* \"#utility.yul\":8719:8720   */\n      dup4\n        /* \"#utility.yul\":8701:8721   */\n      tag_174\n      jump\t// in\n    tag_279:\n        /* \"#utility.yul\":8696:8721   */\n      swap3\n      pop\n        /* \"#utility.yul\":8745:8746   */\n      dup3\n        /* \"#utility.yul\":8742:8743   */\n      dup3\n        /* \"#utility.yul\":8738:8747   */\n      sub\n        /* \"#utility.yul\":8730:8747   */\n      swap1\n      pop\n        /* \"#utility.yul\":8769:8770   */\n      dup2\n        /* \"#utility.yul\":8763:8767   */\n      dup2\n        /* \"#utility.yul\":8760:8771   */\n      gt\n        /* \"#utility.yul\":8757:8794   */\n      iszero\n      tag_280\n      jumpi\n        /* \"#utility.yul\":8774:8792   */\n      tag_281\n      tag_175\n      jump\t// in\n    tag_281:\n        /* \"#utility.yul\":8757:8794   */\n    tag_280:\n        /* \"#utility.yul\":8607:8801   */\n      swap3\n      swap2\n      pop\n      pop\n      jump\t// out\n        /* \"#utility.yul\":8807:8971   */\n    tag_198:\n        /* \"#utility.yul\":8947:8963   */\n      0x646f6e617465206d757374203e30000000000000000000000000000000000000\n        /* \"#utility.yul\":8943:8944   */\n      0x00\n        /* \"#utility.yul\":8935:8941   */\n      dup3\n        /* \"#utility.yul\":8931:8945   */\n      add\n        /* \"#utility.yul\":8924:8964   */\n      mstore\n        /* \"#utility.yul\":8807:8971   */\n      pop\n      jump\t// out\n        /* \"#utility.yul\":8977:9343   */\n    tag_199:\n        /* \"#utility.yul\":9119:9122   */\n      0x00\n        /* \"#utility.yul\":9140:9207   */\n      tag_284\n        /* \"#utility.yul\":9204:9206   */\n      0x0e\n        /* \"#utility.yul\":9199:9202   */\n      dup4\n        /* \"#utility.yul\":9140:9207   */\n      tag_171\n      jump\t// in\n    tag_284:\n        /* \"#utility.yul\":9133:9207   */\n      swap2\n      pop\n        /* \"#utility.yul\":9216:9309   */\n      tag_285\n        /* \"#utility.yul\":9305:9308   */\n      dup3\n        /* \"#utility.yul\":9216:9309   */\n      tag_198\n      jump\t// in\n    tag_285:\n        /* \"#utility.yul\":9334:9336   */\n      0x20\n        /* \"#utility.yul\":9329:9332   */\n      dup3\n        /* \"#utility.yul\":9325:9337   */\n      add\n        /* \"#utility.yul\":9318:9337   */\n      swap1\n      pop\n        /* \"#utility.yul\":8977:9343   */\n      swap2\n      swap1\n      pop\n      jump\t// out\n        /* \"#utility.yul\":9349:9768   */\n    tag_151:\n        /* \"#utility.yul\":9515:9519   */\n      0x00\n        /* \"#utility.yul\":9553:9555   */\n      0x20\n        /* \"#utility.yul\":9542:9551   */\n      dup3\n        /* \"#utility.yul\":9538:9556   */\n      add\n        /* \"#utility.yul\":9530:9556   */\n      swap1\n      pop\n        /* \"#utility.yul\":9602:9611   */\n      dup2\n        /* \"#utility.yul\":9596:9600   */\n      dup2\n        /* \"#utility.yul\":9592:9612   */\n      sub\n        /* \"#utility.yul\":9588:9589   */\n      0x00\n        /* \"#utility.yul\":9577:9586   */\n      dup4\n        /* \"#utility.yul\":9573:9590   */\n      add\n        /* \"#utility.yul\":9566:9613   */\n      mstore\n        /* \"#utility.yul\":9630:9761   */\n      tag_287\n        /* \"#utility.yul\":9756:9760   */\n      dup2\n        /* \"#utility.yul\":9630:9761   */\n      tag_199\n      jump\t// in\n    tag_287:\n        /* \"#utility.yul\":9622:9761   */\n      swap1\n      pop\n        /* \"#utility.yul\":9349:9768   */\n      swap2\n      swap1\n      pop\n      jump\t// out\n\n    auxdata: 0xa2646970667358221220cbdc016edd38b475c3ef3e31af25828f57574c8231ebb47dab7790f581a8f9d064736f6c634300081e0033\n}\n",
				"bytecode": {
					"linkReferences": {},
					"object": "608060405234801561000f575f5ffd5b50335f73ffffffffffffffffffffffffffffffffffffffff168173ffffffffffffffffffffffffffffffffffffffff1603610081575f6040517f1e4fbdf70000000000000000000000000000000000000000000000000000000081526004016100789190610196565b60405180910390fd5b6100908161009660201b60201c565b506101af565b5f5f5f9054906101000a900473ffffffffffffffffffffffffffffffffffffffff169050815f5f6101000a81548173ffffffffffffffffffffffffffffffffffffffff021916908373ffffffffffffffffffffffffffffffffffffffff1602179055508173ffffffffffffffffffffffffffffffffffffffff168173ffffffffffffffffffffffffffffffffffffffff167f8be0079c531659141344cd1fd0a4f28419497f9722a3daafe3b4186f6b6457e060405160405180910390a35050565b5f73ffffffffffffffffffffffffffffffffffffffff82169050919050565b5f61018082610157565b9050919050565b61019081610176565b82525050565b5f6020820190506101a95f830184610187565b92915050565b6111f6806101bc5f395ff3fe60806040526004361061007e575f3560e01c80638da5cb5b1161004d5780638da5cb5b14610297578063e3a137f8146102c1578063ed88c68e146102eb578063f2fde38b146102f55761020d565b80633ccfd60b14610211578063410a1d321461021b5780636f9fb98a14610257578063715018a6146102815761020d565b3661020d575f34116100c5576040517f08c379a00000000000000000000000000000000000000000000000000000000081526004016100bc90610d75565b60405180910390fd5b5f60015f3373ffffffffffffffffffffffffffffffffffffffff1673ffffffffffffffffffffffffffffffffffffffff1681526020019081526020015f20540361016a57600233908060018154018082558091505060019003905f5260205f20015f9091909190916101000a81548173ffffffffffffffffffffffffffffffffffffffff021916908373ffffffffffffffffffffffffffffffffffffffff1602179055505b3460015f3373ffffffffffffffffffffffffffffffffffffffff1673ffffffffffffffffffffffffffffffffffffffff1681526020019081526020015f205f8282546101b69190610dc9565b925050819055503373ffffffffffffffffffffffffffffffffffffffff167f313dc944d67ae2de3cd7539bfa6b5e62c8a287eacae6cda7a14ce97118770ab6346040516102039190610e0b565b60405180910390a2005b5f5ffd5b61021961031d565b005b348015610226575f5ffd5b50610241600480360381019061023c9190610e82565b6103b9565b60405161024e9190610e0b565b60405180910390f35b348015610262575f5ffd5b5061026b61046d565b6040516102789190610e0b565b60405180910390f35b34801561028c575f5ffd5b50610295610474565b005b3480156102a2575f5ffd5b506102ab610487565b6040516102b89190610ebc565b60405180910390f35b3480156102cc575f5ffd5b506102d56104ae565b6040516102e29190610f7a565b60405180910390f35b6102f361099c565b005b348015610300575f5ffd5b5061031b60048036038101906103169190610e82565b610b26565b005b610325610baa565b5f4790505f811161036b576040517f08c379a000000000000000000000000000000000000000000000000000000000815260040161036290610fdd565b60405180910390fd5b610373610487565b73ffffffffffffffffffffffffffffffffffffffff166108fc8290811502906040515f60405180830381858888f193505050501580156103b5573d5f5f3e3d5ffd5b5050565b5f5f73ffffffffffffffffffffffffffffffffffffffff168273ffffffffffffffffffffffffffffffffffffffff1603610428576040517f08c379a000000000000000000000000000000000000000000000000000000000815260040161041f90611045565b60405180910390fd5b60015f8373ffffffffffffffffffffffffffffffffffffffff1673ffffffffffffffffffffffffffffffffffffffff1681526020019081526020015f20549050919050565b5f47905090565b61047c610baa565b6104855f610c31565b565b5f5f5f9054906101000a900473ffffffffffffffffffffffffffffffffffffffff16905090565b6104b6610cf9565b5f600280549050116104fd576040517f08c379a00000000000000000000000000000000000000000000000000000000081526004016104f4906110ad565b60405180910390fd5b5f60028054905067ffffffffffffffff81111561051d5761051c6110cb565b5b60405190808252806020026020018201604052801561054b5781602001602082028036833780820191505090505b5090505f60028054905067ffffffffffffffff81111561056e5761056d6110cb565b5b60405190808252806020026020018201604052801561059c5781602001602082028036833780820191505090505b5090505f5f90505b6002805490508110156106df57600281815481106105c5576105c46110f8565b5b905f5260205f20015f9054906101000a900473ffffffffffffffffffffffffffffffffffffffff16838281518110610600576105ff6110f8565b5b602002602001019073ffffffffffffffffffffffffffffffffffffffff16908173ffffffffffffffffffffffffffffffffffffffff168152505060015f60028381548110610651576106506110f8565b5b905f5260205f20015f9054906101000a900473ffffffffffffffffffffffffffffffffffffffff1673ffffffffffffffffffffffffffffffffffffffff1673ffffffffffffffffffffffffffffffffffffffff1681526020019081526020015f20548282815181106106c6576106c56110f8565b5b60200260200101818152505080806001019150506105a4565b505f5f90505b600183516106f39190611125565b8110156108f3575f5f90505b600182855161070e9190611125565b6107189190611125565b8110156108e5578260018261072d9190610dc9565b8151811061073e5761073d6110f8565b5b6020026020010151838281518110610759576107586110f8565b5b602002602001015110156108d857826001826107759190610dc9565b81518110610786576107856110f8565b5b60200260200101518382815181106107a1576107a06110f8565b5b60200260200101518483815181106107bc576107bb6110f8565b5b60200260200101856001856107d19190610dc9565b815181106107e2576107e16110f8565b5b6020026020010182815250828152505050836001826108019190610dc9565b81518110610812576108116110f8565b5b602002602001015184828151811061082d5761082c6110f8565b5b6020026020010151858381518110610848576108476110f8565b5b602002602001018660018561085d9190610dc9565b8151811061086e5761086d6110f8565b5b602002602001018273ffffffffffffffffffffffffffffffffffffffff1673ffffffffffffffffffffffffffffffffffffffff168152508273ffffffffffffffffffffffffffffffffffffffff1673ffffffffffffffffffffffffffffffffffffffff1681525050505b80806001019150506106ff565b5080806001019150506106e5565b506108fc610cf9565b5f600384511061090d576003610910565b83515b90505f5f90505b8181101561099157848181518110610932576109316110f8565b5b602002602001015183826003811061094d5761094c6110f8565b5b602002019073ffffffffffffffffffffffffffffffffffffffff16908173ffffffffffffffffffffffffffffffffffffffff16815250508080600101915050610917565b508194505050505090565b5f34116109de576040517f08c379a00000000000000000000000000000000000000000000000000000000081526004016109d5906111a2565b60405180910390fd5b5f60015f3373ffffffffffffffffffffffffffffffffffffffff1673ffffffffffffffffffffffffffffffffffffffff1681526020019081526020015f205403610a8357600233908060018154018082558091505060019003905f5260205f20015f9091909190916101000a81548173ffffffffffffffffffffffffffffffffffffffff021916908373ffffffffffffffffffffffffffffffffffffffff1602179055505b3460015f3373ffffffffffffffffffffffffffffffffffffffff1673ffffffffffffffffffffffffffffffffffffffff1681526020019081526020015f205f828254610acf9190610dc9565b925050819055503373ffffffffffffffffffffffffffffffffffffffff167f313dc944d67ae2de3cd7539bfa6b5e62c8a287eacae6cda7a14ce97118770ab634604051610b1c9190610e0b565b60405180910390a2565b610b2e610baa565b5f73ffffffffffffffffffffffffffffffffffffffff168173ffffffffffffffffffffffffffffffffffffffff1603610b9e575f6040517f1e4fbdf7000000000000000000000000000000000000000000000000000000008152600401610b959190610ebc565b60405180910390fd5b610ba781610c31565b50565b610bb2610cf2565b73ffffffffffffffffffffffffffffffffffffffff16610bd0610487565b73ffffffffffffffffffffffffffffffffffffffff1614610c2f57610bf3610cf2565b6040517f118cdaa7000000000000000000000000000000000000000000000000000000008152600401610c269190610ebc565b60405180910390fd5b565b5f5f5f9054906101000a900473ffffffffffffffffffffffffffffffffffffffff169050815f5f6101000a81548173ffffffffffffffffffffffffffffffffffffffff021916908373ffffffffffffffffffffffffffffffffffffffff1602179055508173ffffffffffffffffffffffffffffffffffffffff168173ffffffffffffffffffffffffffffffffffffffff167f8be0079c531659141344cd1fd0a4f28419497f9722a3daafe3b4186f6b6457e060405160405180910390a35050565b5f33905090565b6040518060600160405280600390602082028036833780820191505090505090565b5f82825260208201905092915050565b7f6d73672076616c7565206d757374203e300000000000000000000000000000005f82015250565b5f610d5f601183610d1b565b9150610d6a82610d2b565b602082019050919050565b5f6020820190508181035f830152610d8c81610d53565b9050919050565b5f819050919050565b7f4e487b71000000000000000000000000000000000000000000000000000000005f52601160045260245ffd5b5f610dd382610d93565b9150610dde83610d93565b9250828201905080821115610df657610df5610d9c565b5b92915050565b610e0581610d93565b82525050565b5f602082019050610e1e5f830184610dfc565b92915050565b5f5ffd5b5f73ffffffffffffffffffffffffffffffffffffffff82169050919050565b5f610e5182610e28565b9050919050565b610e6181610e47565b8114610e6b575f5ffd5b50565b5f81359050610e7c81610e58565b92915050565b5f60208284031215610e9757610e96610e24565b5b5f610ea484828501610e6e565b91505092915050565b610eb681610e47565b82525050565b5f602082019050610ecf5f830184610ead565b92915050565b5f60039050919050565b5f81905092915050565b5f819050919050565b610efb81610e47565b82525050565b5f610f0c8383610ef2565b60208301905092915050565b5f602082019050919050565b610f2d81610ed5565b610f378184610edf565b9250610f4282610ee9565b805f5b83811015610f72578151610f598782610f01565b9650610f6483610f18565b925050600181019050610f45565b505050505050565b5f606082019050610f8d5f830184610f24565b92915050565b7f6e6f2062616c616e636520746f207769746864726177000000000000000000005f82015250565b5f610fc7601683610d1b565b9150610fd282610f93565b602082019050919050565b5f6020820190508181035f830152610ff481610fbb565b9050919050565b7f6164647265737320696e76696c696400000000000000000000000000000000005f82015250565b5f61102f600f83610d1b565b915061103a82610ffb565b602082019050919050565b5f6020820190508181035f83015261105c81611023565b9050919050565b7f63757272656e74206e6f20646f6e6f72730000000000000000000000000000005f82015250565b5f611097601183610d1b565b91506110a282611063565b602082019050919050565b5f6020820190508181035f8301526110c48161108b565b9050919050565b7f4e487b71000000000000000000000000000000000000000000000000000000005f52604160045260245ffd5b7f4e487b71000000000000000000000000000000000000000000000000000000005f52603260045260245ffd5b5f61112f82610d93565b915061113a83610d93565b925082820390508181111561115257611151610d9c565b5b92915050565b7f646f6e617465206d757374203e300000000000000000000000000000000000005f82015250565b5f61118c600e83610d1b565b915061119782611158565b602082019050919050565b5f6020820190508181035f8301526111b981611180565b905091905056fea2646970667358221220cbdc016edd38b475c3ef3e31af25828f57574c8231ebb47dab7790f581a8f9d064736f6c634300081e0033",
					"opcodes": "PUSH1 0x80 PUSH1 0x40 MSTORE CALLVALUE DUP1 ISZERO PUSH2 0xF JUMPI PUSH0 PUSH0 REVERT JUMPDEST POP CALLER PUSH0 PUSH20 0xFFFFFFFFFFFFFFFFFFFFFFFFFFFFFFFFFFFFFFFF AND DUP2 PUSH20 0xFFFFFFFFFFFFFFFFFFFFFFFFFFFFFFFFFFFFFFFF AND SUB PUSH2 0x81 JUMPI PUSH0 PUSH1 0x40 MLOAD PUSH32 0x1E4FBDF700000000000000000000000000000000000000000000000000000000 DUP2 MSTORE PUSH1 0x4 ADD PUSH2 0x78 SWAP2 SWAP1 PUSH2 0x196 JUMP JUMPDEST PUSH1 0x40 MLOAD DUP1 SWAP2 SUB SWAP1 REVERT JUMPDEST PUSH2 0x90 DUP2 PUSH2 0x96 PUSH1 0x20 SHL PUSH1 0x20 SHR JUMP JUMPDEST POP PUSH2 0x1AF JUMP JUMPDEST PUSH0 PUSH0 PUSH0 SWAP1 SLOAD SWAP1 PUSH2 0x100 EXP SWAP1 DIV PUSH20 0xFFFFFFFFFFFFFFFFFFFFFFFFFFFFFFFFFFFFFFFF AND SWAP1 POP DUP2 PUSH0 PUSH0 PUSH2 0x100 EXP DUP2 SLOAD DUP2 PUSH20 0xFFFFFFFFFFFFFFFFFFFFFFFFFFFFFFFFFFFFFFFF MUL NOT AND SWAP1 DUP4 PUSH20 0xFFFFFFFFFFFFFFFFFFFFFFFFFFFFFFFFFFFFFFFF AND MUL OR SWAP1 SSTORE POP DUP2 PUSH20 0xFFFFFFFFFFFFFFFFFFFFFFFFFFFFFFFFFFFFFFFF AND DUP2 PUSH20 0xFFFFFFFFFFFFFFFFFFFFFFFFFFFFFFFFFFFFFFFF AND PUSH32 0x8BE0079C531659141344CD1FD0A4F28419497F9722A3DAAFE3B4186F6B6457E0 PUSH1 0x40 MLOAD PUSH1 0x40 MLOAD DUP1 SWAP2 SUB SWAP1 LOG3 POP POP JUMP JUMPDEST PUSH0 PUSH20 0xFFFFFFFFFFFFFFFFFFFFFFFFFFFFFFFFFFFFFFFF DUP3 AND SWAP1 POP SWAP2 SWAP1 POP JUMP JUMPDEST PUSH0 PUSH2 0x180 DUP3 PUSH2 0x157 JUMP JUMPDEST SWAP1 POP SWAP2 SWAP1 POP JUMP JUMPDEST PUSH2 0x190 DUP2 PUSH2 0x176 JUMP JUMPDEST DUP3 MSTORE POP POP JUMP JUMPDEST PUSH0 PUSH1 0x20 DUP3 ADD SWAP1 POP PUSH2 0x1A9 PUSH0 DUP4 ADD DUP5 PUSH2 0x187 JUMP JUMPDEST SWAP3 SWAP2 POP POP JUMP JUMPDEST PUSH2 0x11F6 DUP1 PUSH2 0x1BC PUSH0 CODECOPY PUSH0 RETURN INVALID PUSH1 0x80 PUSH1 0x40 MSTORE PUSH1 0x4 CALLDATASIZE LT PUSH2 0x7E JUMPI PUSH0 CALLDATALOAD PUSH1 0xE0 SHR DUP1 PUSH4 0x8DA5CB5B GT PUSH2 0x4D JUMPI DUP1 PUSH4 0x8DA5CB5B EQ PUSH2 0x297 JUMPI DUP1 PUSH4 0xE3A137F8 EQ PUSH2 0x2C1 JUMPI DUP1 PUSH4 0xED88C68E EQ PUSH2 0x2EB JUMPI DUP1 PUSH4 0xF2FDE38B EQ PUSH2 0x2F5 JUMPI PUSH2 0x20D JUMP JUMPDEST DUP1 PUSH4 0x3CCFD60B EQ PUSH2 0x211 JUMPI DUP1 PUSH4 0x410A1D32 EQ PUSH2 0x21B JUMPI DUP1 PUSH4 0x6F9FB98A EQ PUSH2 0x257 JUMPI DUP1 PUSH4 0x715018A6 EQ PUSH2 0x281 JUMPI PUSH2 0x20D JUMP JUMPDEST CALLDATASIZE PUSH2 0x20D JUMPI PUSH0 CALLVALUE GT PUSH2 0xC5 JUMPI PUSH1 0x40 MLOAD PUSH32 0x8C379A000000000000000000000000000000000000000000000000000000000 DUP2 MSTORE PUSH1 0x4 ADD PUSH2 0xBC SWAP1 PUSH2 0xD75 JUMP JUMPDEST PUSH1 0x40 MLOAD DUP1 SWAP2 SUB SWAP1 REVERT JUMPDEST PUSH0 PUSH1 0x1 PUSH0 CALLER PUSH20 0xFFFFFFFFFFFFFFFFFFFFFFFFFFFFFFFFFFFFFFFF AND PUSH20 0xFFFFFFFFFFFFFFFFFFFFFFFFFFFFFFFFFFFFFFFF AND DUP2 MSTORE PUSH1 0x20 ADD SWAP1 DUP2 MSTORE PUSH1 0x20 ADD PUSH0 KECCAK256 SLOAD SUB PUSH2 0x16A JUMPI PUSH1 0x2 CALLER SWAP1 DUP1 PUSH1 0x1 DUP2 SLOAD ADD DUP1 DUP3 SSTORE DUP1 SWAP2 POP POP PUSH1 0x1 SWAP1 SUB SWAP1 PUSH0 MSTORE PUSH1 0x20 PUSH0 KECCAK256 ADD PUSH0 SWAP1 SWAP2 SWAP1 SWAP2 SWAP1 SWAP2 PUSH2 0x100 EXP DUP2 SLOAD DUP2 PUSH20 0xFFFFFFFFFFFFFFFFFFFFFFFFFFFFFFFFFFFFFFFF MUL NOT AND SWAP1 DUP4 PUSH20 0xFFFFFFFFFFFFFFFFFFFFFFFFFFFFFFFFFFFFFFFF AND MUL OR SWAP1 SSTORE POP JUMPDEST CALLVALUE PUSH1 0x1 PUSH0 CALLER PUSH20 0xFFFFFFFFFFFFFFFFFFFFFFFFFFFFFFFFFFFFFFFF AND PUSH20 0xFFFFFFFFFFFFFFFFFFFFFFFFFFFFFFFFFFFFFFFF AND DUP2 MSTORE PUSH1 0x20 ADD SWAP1 DUP2 MSTORE PUSH1 0x20 ADD PUSH0 KECCAK256 PUSH0 DUP3 DUP3 SLOAD PUSH2 0x1B6 SWAP2 SWAP1 PUSH2 0xDC9 JUMP JUMPDEST SWAP3 POP POP DUP2 SWAP1 SSTORE POP CALLER PUSH20 0xFFFFFFFFFFFFFFFFFFFFFFFFFFFFFFFFFFFFFFFF AND PUSH32 0x313DC944D67AE2DE3CD7539BFA6B5E62C8A287EACAE6CDA7A14CE97118770AB6 CALLVALUE PUSH1 0x40 MLOAD PUSH2 0x203 SWAP2 SWAP1 PUSH2 0xE0B JUMP JUMPDEST PUSH1 0x40 MLOAD DUP1 SWAP2 SUB SWAP1 LOG2 STOP JUMPDEST PUSH0 PUSH0 REVERT JUMPDEST PUSH2 0x219 PUSH2 0x31D JUMP JUMPDEST STOP JUMPDEST CALLVALUE DUP1 ISZERO PUSH2 0x226 JUMPI PUSH0 PUSH0 REVERT JUMPDEST POP PUSH2 0x241 PUSH1 0x4 DUP1 CALLDATASIZE SUB DUP2 ADD SWAP1 PUSH2 0x23C SWAP2 SWAP1 PUSH2 0xE82 JUMP JUMPDEST PUSH2 0x3B9 JUMP JUMPDEST PUSH1 0x40 MLOAD PUSH2 0x24E SWAP2 SWAP1 PUSH2 0xE0B JUMP JUMPDEST PUSH1 0x40 MLOAD DUP1 SWAP2 SUB SWAP1 RETURN JUMPDEST CALLVALUE DUP1 ISZERO PUSH2 0x262 JUMPI PUSH0 PUSH0 REVERT JUMPDEST POP PUSH2 0x26B PUSH2 0x46D JUMP JUMPDEST PUSH1 0x40 MLOAD PUSH2 0x278 SWAP2 SWAP1 PUSH2 0xE0B JUMP JUMPDEST PUSH1 0x40 MLOAD DUP1 SWAP2 SUB SWAP1 RETURN JUMPDEST CALLVALUE DUP1 ISZERO PUSH2 0x28C JUMPI PUSH0 PUSH0 REVERT JUMPDEST POP PUSH2 0x295 PUSH2 0x474 JUMP JUMPDEST STOP JUMPDEST CALLVALUE DUP1 ISZERO PUSH2 0x2A2 JUMPI PUSH0 PUSH0 REVERT JUMPDEST POP PUSH2 0x2AB PUSH2 0x487 JUMP JUMPDEST PUSH1 0x40 MLOAD PUSH2 0x2B8 SWAP2 SWAP1 PUSH2 0xEBC JUMP JUMPDEST PUSH1 0x40 MLOAD DUP1 SWAP2 SUB SWAP1 RETURN JUMPDEST CALLVALUE DUP1 ISZERO PUSH2 0x2CC JUMPI PUSH0 PUSH0 REVERT JUMPDEST POP PUSH2 0x2D5 PUSH2 0x4AE JUMP JUMPDEST PUSH1 0x40 MLOAD PUSH2 0x2E2 SWAP2 SWAP1 PUSH2 0xF7A JUMP JUMPDEST PUSH1 0x40 MLOAD DUP1 SWAP2 SUB SWAP1 RETURN JUMPDEST PUSH2 0x2F3 PUSH2 0x99C JUMP JUMPDEST STOP JUMPDEST CALLVALUE DUP1 ISZERO PUSH2 0x300 JUMPI PUSH0 PUSH0 REVERT JUMPDEST POP PUSH2 0x31B PUSH1 0x4 DUP1 CALLDATASIZE SUB DUP2 ADD SWAP1 PUSH2 0x316 SWAP2 SWAP1 PUSH2 0xE82 JUMP JUMPDEST PUSH2 0xB26 JUMP JUMPDEST STOP JUMPDEST PUSH2 0x325 PUSH2 0xBAA JUMP JUMPDEST PUSH0 SELFBALANCE SWAP1 POP PUSH0 DUP2 GT PUSH2 0x36B JUMPI PUSH1 0x40 MLOAD PUSH32 0x8C379A000000000000000000000000000000000000000000000000000000000 DUP2 MSTORE PUSH1 0x4 ADD PUSH2 0x362 SWAP1 PUSH2 0xFDD JUMP JUMPDEST PUSH1 0x40 MLOAD DUP1 SWAP2 SUB SWAP1 REVERT JUMPDEST PUSH2 0x373 PUSH2 0x487 JUMP JUMPDEST PUSH20 0xFFFFFFFFFFFFFFFFFFFFFFFFFFFFFFFFFFFFFFFF AND PUSH2 0x8FC DUP3 SWAP1 DUP2 ISZERO MUL SWAP1 PUSH1 0x40 MLOAD PUSH0 PUSH1 0x40 MLOAD DUP1 DUP4 SUB DUP2 DUP6 DUP9 DUP9 CALL SWAP4 POP POP POP POP ISZERO DUP1 ISZERO PUSH2 0x3B5 JUMPI RETURNDATASIZE PUSH0 PUSH0 RETURNDATACOPY RETURNDATASIZE PUSH0 REVERT JUMPDEST POP POP JUMP JUMPDEST PUSH0 PUSH0 PUSH20 0xFFFFFFFFFFFFFFFFFFFFFFFFFFFFFFFFFFFFFFFF AND DUP3 PUSH20 0xFFFFFFFFFFFFFFFFFFFFFFFFFFFFFFFFFFFFFFFF AND SUB PUSH2 0x428 JUMPI PUSH1 0x40 MLOAD PUSH32 0x8C379A000000000000000000000000000000000000000000000000000000000 DUP2 MSTORE PUSH1 0x4 ADD PUSH2 0x41F SWAP1 PUSH2 0x1045 JUMP JUMPDEST PUSH1 0x40 MLOAD DUP1 SWAP2 SUB SWAP1 REVERT JUMPDEST PUSH1 0x1 PUSH0 DUP4 PUSH20 0xFFFFFFFFFFFFFFFFFFFFFFFFFFFFFFFFFFFFFFFF AND PUSH20 0xFFFFFFFFFFFFFFFFFFFFFFFFFFFFFFFFFFFFFFFF AND DUP2 MSTORE PUSH1 0x20 ADD SWAP1 DUP2 MSTORE PUSH1 0x20 ADD PUSH0 KECCAK256 SLOAD SWAP1 POP SWAP2 SWAP1 POP JUMP JUMPDEST PUSH0 SELFBALANCE SWAP1 POP SWAP1 JUMP JUMPDEST PUSH2 0x47C PUSH2 0xBAA JUMP JUMPDEST PUSH2 0x485 PUSH0 PUSH2 0xC31 JUMP JUMPDEST JUMP JUMPDEST PUSH0 PUSH0 PUSH0 SWAP1 SLOAD SWAP1 PUSH2 0x100 EXP SWAP1 DIV PUSH20 0xFFFFFFFFFFFFFFFFFFFFFFFFFFFFFFFFFFFFFFFF AND SWAP1 POP SWAP1 JUMP JUMPDEST PUSH2 0x4B6 PUSH2 0xCF9 JUMP JUMPDEST PUSH0 PUSH1 0x2 DUP1 SLOAD SWAP1 POP GT PUSH2 0x4FD JUMPI PUSH1 0x40 MLOAD PUSH32 0x8C379A000000000000000000000000000000000000000000000000000000000 DUP2 MSTORE PUSH1 0x4 ADD PUSH2 0x4F4 SWAP1 PUSH2 0x10AD JUMP JUMPDEST PUSH1 0x40 MLOAD DUP1 SWAP2 SUB SWAP1 REVERT JUMPDEST PUSH0 PUSH1 0x2 DUP1 SLOAD SWAP1 POP PUSH8 0xFFFFFFFFFFFFFFFF DUP2 GT ISZERO PUSH2 0x51D JUMPI PUSH2 0x51C PUSH2 0x10CB JUMP JUMPDEST JUMPDEST PUSH1 0x40 MLOAD SWAP1 DUP1 DUP3 MSTORE DUP1 PUSH1 0x20 MUL PUSH1 0x20 ADD DUP3 ADD PUSH1 0x40 MSTORE DUP1 ISZERO PUSH2 0x54B JUMPI DUP2 PUSH1 0x20 ADD PUSH1 0x20 DUP3 MUL DUP1 CALLDATASIZE DUP4 CALLDATACOPY DUP1 DUP3 ADD SWAP2 POP POP SWAP1 POP JUMPDEST POP SWAP1 POP PUSH0 PUSH1 0x2 DUP1 SLOAD SWAP1 POP PUSH8 0xFFFFFFFFFFFFFFFF DUP2 GT ISZERO PUSH2 0x56E JUMPI PUSH2 0x56D PUSH2 0x10CB JUMP JUMPDEST JUMPDEST PUSH1 0x40 MLOAD SWAP1 DUP1 DUP3 MSTORE DUP1 PUSH1 0x20 MUL PUSH1 0x20 ADD DUP3 ADD PUSH1 0x40 MSTORE DUP1 ISZERO PUSH2 0x59C JUMPI DUP2 PUSH1 0x20 ADD PUSH1 0x20 DUP3 MUL DUP1 CALLDATASIZE DUP4 CALLDATACOPY DUP1 DUP3 ADD SWAP2 POP POP SWAP1 POP JUMPDEST POP SWAP1 POP PUSH0 PUSH0 SWAP1 POP JUMPDEST PUSH1 0x2 DUP1 SLOAD SWAP1 POP DUP2 LT ISZERO PUSH2 0x6DF JUMPI PUSH1 0x2 DUP2 DUP2 SLOAD DUP2 LT PUSH2 0x5C5 JUMPI PUSH2 0x5C4 PUSH2 0x10F8 JUMP JUMPDEST JUMPDEST SWAP1 PUSH0 MSTORE PUSH1 0x20 PUSH0 KECCAK256 ADD PUSH0 SWAP1 SLOAD SWAP1 PUSH2 0x100 EXP SWAP1 DIV PUSH20 0xFFFFFFFFFFFFFFFFFFFFFFFFFFFFFFFFFFFFFFFF AND DUP4 DUP3 DUP2 MLOAD DUP2 LT PUSH2 0x600 JUMPI PUSH2 0x5FF PUSH2 0x10F8 JUMP JUMPDEST JUMPDEST PUSH1 0x20 MUL PUSH1 0x20 ADD ADD SWAP1 PUSH20 0xFFFFFFFFFFFFFFFFFFFFFFFFFFFFFFFFFFFFFFFF AND SWAP1 DUP2 PUSH20 0xFFFFFFFFFFFFFFFFFFFFFFFFFFFFFFFFFFFFFFFF AND DUP2 MSTORE POP POP PUSH1 0x1 PUSH0 PUSH1 0x2 DUP4 DUP2 SLOAD DUP2 LT PUSH2 0x651 JUMPI PUSH2 0x650 PUSH2 0x10F8 JUMP JUMPDEST JUMPDEST SWAP1 PUSH0 MSTORE PUSH1 0x20 PUSH0 KECCAK256 ADD PUSH0 SWAP1 SLOAD SWAP1 PUSH2 0x100 EXP SWAP1 DIV PUSH20 0xFFFFFFFFFFFFFFFFFFFFFFFFFFFFFFFFFFFFFFFF AND PUSH20 0xFFFFFFFFFFFFFFFFFFFFFFFFFFFFFFFFFFFFFFFF AND PUSH20 0xFFFFFFFFFFFFFFFFFFFFFFFFFFFFFFFFFFFFFFFF AND DUP2 MSTORE PUSH1 0x20 ADD SWAP1 DUP2 MSTORE PUSH1 0x20 ADD PUSH0 KECCAK256 SLOAD DUP3 DUP3 DUP2 MLOAD DUP2 LT PUSH2 0x6C6 JUMPI PUSH2 0x6C5 PUSH2 0x10F8 JUMP JUMPDEST JUMPDEST PUSH1 0x20 MUL PUSH1 0x20 ADD ADD DUP2 DUP2 MSTORE POP POP DUP1 DUP1 PUSH1 0x1 ADD SWAP2 POP POP PUSH2 0x5A4 JUMP JUMPDEST POP PUSH0 PUSH0 SWAP1 POP JUMPDEST PUSH1 0x1 DUP4 MLOAD PUSH2 0x6F3 SWAP2 SWAP1 PUSH2 0x1125 JUMP JUMPDEST DUP2 LT ISZERO PUSH2 0x8F3 JUMPI PUSH0 PUSH0 SWAP1 POP JUMPDEST PUSH1 0x1 DUP3 DUP6 MLOAD PUSH2 0x70E SWAP2 SWAP1 PUSH2 0x1125 JUMP JUMPDEST PUSH2 0x718 SWAP2 SWAP1 PUSH2 0x1125 JUMP JUMPDEST DUP2 LT ISZERO PUSH2 0x8E5 JUMPI DUP3 PUSH1 0x1 DUP3 PUSH2 0x72D SWAP2 SWAP1 PUSH2 0xDC9 JUMP JUMPDEST DUP2 MLOAD DUP2 LT PUSH2 0x73E JUMPI PUSH2 0x73D PUSH2 0x10F8 JUMP JUMPDEST JUMPDEST PUSH1 0x20 MUL PUSH1 0x20 ADD ADD MLOAD DUP4 DUP3 DUP2 MLOAD DUP2 LT PUSH2 0x759 JUMPI PUSH2 0x758 PUSH2 0x10F8 JUMP JUMPDEST JUMPDEST PUSH1 0x20 MUL PUSH1 0x20 ADD ADD MLOAD LT ISZERO PUSH2 0x8D8 JUMPI DUP3 PUSH1 0x1 DUP3 PUSH2 0x775 SWAP2 SWAP1 PUSH2 0xDC9 JUMP JUMPDEST DUP2 MLOAD DUP2 LT PUSH2 0x786 JUMPI PUSH2 0x785 PUSH2 0x10F8 JUMP JUMPDEST JUMPDEST PUSH1 0x20 MUL PUSH1 0x20 ADD ADD MLOAD DUP4 DUP3 DUP2 MLOAD DUP2 LT PUSH2 0x7A1 JUMPI PUSH2 0x7A0 PUSH2 0x10F8 JUMP JUMPDEST JUMPDEST PUSH1 0x20 MUL PUSH1 0x20 ADD ADD MLOAD DUP5 DUP4 DUP2 MLOAD DUP2 LT PUSH2 0x7BC JUMPI PUSH2 0x7BB PUSH2 0x10F8 JUMP JUMPDEST JUMPDEST PUSH1 0x20 MUL PUSH1 0x20 ADD ADD DUP6 PUSH1 0x1 DUP6 PUSH2 0x7D1 SWAP2 SWAP1 PUSH2 0xDC9 JUMP JUMPDEST DUP2 MLOAD DUP2 LT PUSH2 0x7E2 JUMPI PUSH2 0x7E1 PUSH2 0x10F8 JUMP JUMPDEST JUMPDEST PUSH1 0x20 MUL PUSH1 0x20 ADD ADD DUP3 DUP2 MSTORE POP DUP3 DUP2 MSTORE POP POP POP DUP4 PUSH1 0x1 DUP3 PUSH2 0x801 SWAP2 SWAP1 PUSH2 0xDC9 JUMP JUMPDEST DUP2 MLOAD DUP2 LT PUSH2 0x812 JUMPI PUSH2 0x811 PUSH2 0x10F8 JUMP JUMPDEST JUMPDEST PUSH1 0x20 MUL PUSH1 0x20 ADD ADD MLOAD DUP5 DUP3 DUP2 MLOAD DUP2 LT PUSH2 0x82D JUMPI PUSH2 0x82C PUSH2 0x10F8 JUMP JUMPDEST JUMPDEST PUSH1 0x20 MUL PUSH1 0x20 ADD ADD MLOAD DUP6 DUP4 DUP2 MLOAD DUP2 LT PUSH2 0x848 JUMPI PUSH2 0x847 PUSH2 0x10F8 JUMP JUMPDEST JUMPDEST PUSH1 0x20 MUL PUSH1 0x20 ADD ADD DUP7 PUSH1 0x1 DUP6 PUSH2 0x85D SWAP2 SWAP1 PUSH2 0xDC9 JUMP JUMPDEST DUP2 MLOAD DUP2 LT PUSH2 0x86E JUMPI PUSH2 0x86D PUSH2 0x10F8 JUMP JUMPDEST JUMPDEST PUSH1 0x20 MUL PUSH1 0x20 ADD ADD DUP3 PUSH20 0xFFFFFFFFFFFFFFFFFFFFFFFFFFFFFFFFFFFFFFFF AND PUSH20 0xFFFFFFFFFFFFFFFFFFFFFFFFFFFFFFFFFFFFFFFF AND DUP2 MSTORE POP DUP3 PUSH20 0xFFFFFFFFFFFFFFFFFFFFFFFFFFFFFFFFFFFFFFFF AND PUSH20 0xFFFFFFFFFFFFFFFFFFFFFFFFFFFFFFFFFFFFFFFF AND DUP2 MSTORE POP POP POP JUMPDEST DUP1 DUP1 PUSH1 0x1 ADD SWAP2 POP POP PUSH2 0x6FF JUMP JUMPDEST POP DUP1 DUP1 PUSH1 0x1 ADD SWAP2 POP POP PUSH2 0x6E5 JUMP JUMPDEST POP PUSH2 0x8FC PUSH2 0xCF9 JUMP JUMPDEST PUSH0 PUSH1 0x3 DUP5 MLOAD LT PUSH2 0x90D JUMPI PUSH1 0x3 PUSH2 0x910 JUMP JUMPDEST DUP4 MLOAD JUMPDEST SWAP1 POP PUSH0 PUSH0 SWAP1 POP JUMPDEST DUP2 DUP2 LT ISZERO PUSH2 0x991 JUMPI DUP5 DUP2 DUP2 MLOAD DUP2 LT PUSH2 0x932 JUMPI PUSH2 0x931 PUSH2 0x10F8 JUMP JUMPDEST JUMPDEST PUSH1 0x20 MUL PUSH1 0x20 ADD ADD MLOAD DUP4 DUP3 PUSH1 0x3 DUP2 LT PUSH2 0x94D JUMPI PUSH2 0x94C PUSH2 0x10F8 JUMP JUMPDEST JUMPDEST PUSH1 0x20 MUL ADD SWAP1 PUSH20 0xFFFFFFFFFFFFFFFFFFFFFFFFFFFFFFFFFFFFFFFF AND SWAP1 DUP2 PUSH20 0xFFFFFFFFFFFFFFFFFFFFFFFFFFFFFFFFFFFFFFFF AND DUP2 MSTORE POP POP DUP1 DUP1 PUSH1 0x1 ADD SWAP2 POP POP PUSH2 0x917 JUMP JUMPDEST POP DUP2 SWAP5 POP POP POP POP POP SWAP1 JUMP JUMPDEST PUSH0 CALLVALUE GT PUSH2 0x9DE JUMPI PUSH1 0x40 MLOAD PUSH32 0x8C379A000000000000000000000000000000000000000000000000000000000 DUP2 MSTORE PUSH1 0x4 ADD PUSH2 0x9D5 SWAP1 PUSH2 0x11A2 JUMP JUMPDEST PUSH1 0x40 MLOAD DUP1 SWAP2 SUB SWAP1 REVERT JUMPDEST PUSH0 PUSH1 0x1 PUSH0 CALLER PUSH20 0xFFFFFFFFFFFFFFFFFFFFFFFFFFFFFFFFFFFFFFFF AND PUSH20 0xFFFFFFFFFFFFFFFFFFFFFFFFFFFFFFFFFFFFFFFF AND DUP2 MSTORE PUSH1 0x20 ADD SWAP1 DUP2 MSTORE PUSH1 0x20 ADD PUSH0 KECCAK256 SLOAD SUB PUSH2 0xA83 JUMPI PUSH1 0x2 CALLER SWAP1 DUP1 PUSH1 0x1 DUP2 SLOAD ADD DUP1 DUP3 SSTORE DUP1 SWAP2 POP POP PUSH1 0x1 SWAP1 SUB SWAP1 PUSH0 MSTORE PUSH1 0x20 PUSH0 KECCAK256 ADD PUSH0 SWAP1 SWAP2 SWAP1 SWAP2 SWAP1 SWAP2 PUSH2 0x100 EXP DUP2 SLOAD DUP2 PUSH20 0xFFFFFFFFFFFFFFFFFFFFFFFFFFFFFFFFFFFFFFFF MUL NOT AND SWAP1 DUP4 PUSH20 0xFFFFFFFFFFFFFFFFFFFFFFFFFFFFFFFFFFFFFFFF AND MUL OR SWAP1 SSTORE POP JUMPDEST CALLVALUE PUSH1 0x1 PUSH0 CALLER PUSH20 0xFFFFFFFFFFFFFFFFFFFFFFFFFFFFFFFFFFFFFFFF AND PUSH20 0xFFFFFFFFFFFFFFFFFFFFFFFFFFFFFFFFFFFFFFFF AND DUP2 MSTORE PUSH1 0x20 ADD SWAP1 DUP2 MSTORE PUSH1 0x20 ADD PUSH0 KECCAK256 PUSH0 DUP3 DUP3 SLOAD PUSH2 0xACF SWAP2 SWAP1 PUSH2 0xDC9 JUMP JUMPDEST SWAP3 POP POP DUP2 SWAP1 SSTORE POP CALLER PUSH20 0xFFFFFFFFFFFFFFFFFFFFFFFFFFFFFFFFFFFFFFFF AND PUSH32 0x313DC944D67AE2DE3CD7539BFA6B5E62C8A287EACAE6CDA7A14CE97118770AB6 CALLVALUE PUSH1 0x40 MLOAD PUSH2 0xB1C SWAP2 SWAP1 PUSH2 0xE0B JUMP JUMPDEST PUSH1 0x40 MLOAD DUP1 SWAP2 SUB SWAP1 LOG2 JUMP JUMPDEST PUSH2 0xB2E PUSH2 0xBAA JUMP JUMPDEST PUSH0 PUSH20 0xFFFFFFFFFFFFFFFFFFFFFFFFFFFFFFFFFFFFFFFF AND DUP2 PUSH20 0xFFFFFFFFFFFFFFFFFFFFFFFFFFFFFFFFFFFFFFFF AND SUB PUSH2 0xB9E JUMPI PUSH0 PUSH1 0x40 MLOAD PUSH32 0x1E4FBDF700000000000000000000000000000000000000000000000000000000 DUP2 MSTORE PUSH1 0x4 ADD PUSH2 0xB95 SWAP2 SWAP1 PUSH2 0xEBC JUMP JUMPDEST PUSH1 0x40 MLOAD DUP1 SWAP2 SUB SWAP1 REVERT JUMPDEST PUSH2 0xBA7 DUP2 PUSH2 0xC31 JUMP JUMPDEST POP JUMP JUMPDEST PUSH2 0xBB2 PUSH2 0xCF2 JUMP JUMPDEST PUSH20 0xFFFFFFFFFFFFFFFFFFFFFFFFFFFFFFFFFFFFFFFF AND PUSH2 0xBD0 PUSH2 0x487 JUMP JUMPDEST PUSH20 0xFFFFFFFFFFFFFFFFFFFFFFFFFFFFFFFFFFFFFFFF AND EQ PUSH2 0xC2F JUMPI PUSH2 0xBF3 PUSH2 0xCF2 JUMP JUMPDEST PUSH1 0x40 MLOAD PUSH32 0x118CDAA700000000000000000000000000000000000000000000000000000000 DUP2 MSTORE PUSH1 0x4 ADD PUSH2 0xC26 SWAP2 SWAP1 PUSH2 0xEBC JUMP JUMPDEST PUSH1 0x40 MLOAD DUP1 SWAP2 SUB SWAP1 REVERT JUMPDEST JUMP JUMPDEST PUSH0 PUSH0 PUSH0 SWAP1 SLOAD SWAP1 PUSH2 0x100 EXP SWAP1 DIV PUSH20 0xFFFFFFFFFFFFFFFFFFFFFFFFFFFFFFFFFFFFFFFF AND SWAP1 POP DUP2 PUSH0 PUSH0 PUSH2 0x100 EXP DUP2 SLOAD DUP2 PUSH20 0xFFFFFFFFFFFFFFFFFFFFFFFFFFFFFFFFFFFFFFFF MUL NOT AND SWAP1 DUP4 PUSH20 0xFFFFFFFFFFFFFFFFFFFFFFFFFFFFFFFFFFFFFFFF AND MUL OR SWAP1 SSTORE POP DUP2 PUSH20 0xFFFFFFFFFFFFFFFFFFFFFFFFFFFFFFFFFFFFFFFF AND DUP2 PUSH20 0xFFFFFFFFFFFFFFFFFFFFFFFFFFFFFFFFFFFFFFFF AND PUSH32 0x8BE0079C531659141344CD1FD0A4F28419497F9722A3DAAFE3B4186F6B6457E0 PUSH1 0x40 MLOAD PUSH1 0x40 MLOAD DUP1 SWAP2 SUB SWAP1 LOG3 POP POP JUMP JUMPDEST PUSH0 CALLER SWAP1 POP SWAP1 JUMP JUMPDEST PUSH1 0x40 MLOAD DUP1 PUSH1 0x60 ADD PUSH1 0x40 MSTORE DUP1 PUSH1 0x3 SWAP1 PUSH1 0x20 DUP3 MUL DUP1 CALLDATASIZE DUP4 CALLDATACOPY DUP1 DUP3 ADD SWAP2 POP POP SWAP1 POP POP SWAP1 JUMP JUMPDEST PUSH0 DUP3 DUP3 MSTORE PUSH1 0x20 DUP3 ADD SWAP1 POP SWAP3 SWAP2 POP POP JUMP JUMPDEST PUSH32 0x6D73672076616C7565206D757374203E30000000000000000000000000000000 PUSH0 DUP3 ADD MSTORE POP JUMP JUMPDEST PUSH0 PUSH2 0xD5F PUSH1 0x11 DUP4 PUSH2 0xD1B JUMP JUMPDEST SWAP2 POP PUSH2 0xD6A DUP3 PUSH2 0xD2B JUMP JUMPDEST PUSH1 0x20 DUP3 ADD SWAP1 POP SWAP2 SWAP1 POP JUMP JUMPDEST PUSH0 PUSH1 0x20 DUP3 ADD SWAP1 POP DUP2 DUP2 SUB PUSH0 DUP4 ADD MSTORE PUSH2 0xD8C DUP2 PUSH2 0xD53 JUMP JUMPDEST SWAP1 POP SWAP2 SWAP1 POP JUMP JUMPDEST PUSH0 DUP2 SWAP1 POP SWAP2 SWAP1 POP JUMP JUMPDEST PUSH32 0x4E487B7100000000000000000000000000000000000000000000000000000000 PUSH0 MSTORE PUSH1 0x11 PUSH1 0x4 MSTORE PUSH1 0x24 PUSH0 REVERT JUMPDEST PUSH0 PUSH2 0xDD3 DUP3 PUSH2 0xD93 JUMP JUMPDEST SWAP2 POP PUSH2 0xDDE DUP4 PUSH2 0xD93 JUMP JUMPDEST SWAP3 POP DUP3 DUP3 ADD SWAP1 POP DUP1 DUP3 GT ISZERO PUSH2 0xDF6 JUMPI PUSH2 0xDF5 PUSH2 0xD9C JUMP JUMPDEST JUMPDEST SWAP3 SWAP2 POP POP JUMP JUMPDEST PUSH2 0xE05 DUP2 PUSH2 0xD93 JUMP JUMPDEST DUP3 MSTORE POP POP JUMP JUMPDEST PUSH0 PUSH1 0x20 DUP3 ADD SWAP1 POP PUSH2 0xE1E PUSH0 DUP4 ADD DUP5 PUSH2 0xDFC JUMP JUMPDEST SWAP3 SWAP2 POP POP JUMP JUMPDEST PUSH0 PUSH0 REVERT JUMPDEST PUSH0 PUSH20 0xFFFFFFFFFFFFFFFFFFFFFFFFFFFFFFFFFFFFFFFF DUP3 AND SWAP1 POP SWAP2 SWAP1 POP JUMP JUMPDEST PUSH0 PUSH2 0xE51 DUP3 PUSH2 0xE28 JUMP JUMPDEST SWAP1 POP SWAP2 SWAP1 POP JUMP JUMPDEST PUSH2 0xE61 DUP2 PUSH2 0xE47 JUMP JUMPDEST DUP2 EQ PUSH2 0xE6B JUMPI PUSH0 PUSH0 REVERT JUMPDEST POP JUMP JUMPDEST PUSH0 DUP2 CALLDATALOAD SWAP1 POP PUSH2 0xE7C DUP2 PUSH2 0xE58 JUMP JUMPDEST SWAP3 SWAP2 POP POP JUMP JUMPDEST PUSH0 PUSH1 0x20 DUP3 DUP5 SUB SLT ISZERO PUSH2 0xE97 JUMPI PUSH2 0xE96 PUSH2 0xE24 JUMP JUMPDEST JUMPDEST PUSH0 PUSH2 0xEA4 DUP5 DUP3 DUP6 ADD PUSH2 0xE6E JUMP JUMPDEST SWAP2 POP POP SWAP3 SWAP2 POP POP JUMP JUMPDEST PUSH2 0xEB6 DUP2 PUSH2 0xE47 JUMP JUMPDEST DUP3 MSTORE POP POP JUMP JUMPDEST PUSH0 PUSH1 0x20 DUP3 ADD SWAP1 POP PUSH2 0xECF PUSH0 DUP4 ADD DUP5 PUSH2 0xEAD JUMP JUMPDEST SWAP3 SWAP2 POP POP JUMP JUMPDEST PUSH0 PUSH1 0x3 SWAP1 POP SWAP2 SWAP1 POP JUMP JUMPDEST PUSH0 DUP2 SWAP1 POP SWAP3 SWAP2 POP POP JUMP JUMPDEST PUSH0 DUP2 SWAP1 POP SWAP2 SWAP1 POP JUMP JUMPDEST PUSH2 0xEFB DUP2 PUSH2 0xE47 JUMP JUMPDEST DUP3 MSTORE POP POP JUMP JUMPDEST PUSH0 PUSH2 0xF0C DUP4 DUP4 PUSH2 0xEF2 JUMP JUMPDEST PUSH1 0x20 DUP4 ADD SWAP1 POP SWAP3 SWAP2 POP POP JUMP JUMPDEST PUSH0 PUSH1 0x20 DUP3 ADD SWAP1 POP SWAP2 SWAP1 POP JUMP JUMPDEST PUSH2 0xF2D DUP2 PUSH2 0xED5 JUMP JUMPDEST PUSH2 0xF37 DUP2 DUP5 PUSH2 0xEDF JUMP JUMPDEST SWAP3 POP PUSH2 0xF42 DUP3 PUSH2 0xEE9 JUMP JUMPDEST DUP1 PUSH0 JUMPDEST DUP4 DUP2 LT ISZERO PUSH2 0xF72 JUMPI DUP2 MLOAD PUSH2 0xF59 DUP8 DUP3 PUSH2 0xF01 JUMP JUMPDEST SWAP7 POP PUSH2 0xF64 DUP4 PUSH2 0xF18 JUMP JUMPDEST SWAP3 POP POP PUSH1 0x1 DUP2 ADD SWAP1 POP PUSH2 0xF45 JUMP JUMPDEST POP POP POP POP POP POP JUMP JUMPDEST PUSH0 PUSH1 0x60 DUP3 ADD SWAP1 POP PUSH2 0xF8D PUSH0 DUP4 ADD DUP5 PUSH2 0xF24 JUMP JUMPDEST SWAP3 SWAP2 POP POP JUMP JUMPDEST PUSH32 0x6E6F2062616C616E636520746F20776974686472617700000000000000000000 PUSH0 DUP3 ADD MSTORE POP JUMP JUMPDEST PUSH0 PUSH2 0xFC7 PUSH1 0x16 DUP4 PUSH2 0xD1B JUMP JUMPDEST SWAP2 POP PUSH2 0xFD2 DUP3 PUSH2 0xF93 JUMP JUMPDEST PUSH1 0x20 DUP3 ADD SWAP1 POP SWAP2 SWAP1 POP JUMP JUMPDEST PUSH0 PUSH1 0x20 DUP3 ADD SWAP1 POP DUP2 DUP2 SUB PUSH0 DUP4 ADD MSTORE PUSH2 0xFF4 DUP2 PUSH2 0xFBB JUMP JUMPDEST SWAP1 POP SWAP2 SWAP1 POP JUMP JUMPDEST PUSH32 0x6164647265737320696E76696C69640000000000000000000000000000000000 PUSH0 DUP3 ADD MSTORE POP JUMP JUMPDEST PUSH0 PUSH2 0x102F PUSH1 0xF DUP4 PUSH2 0xD1B JUMP JUMPDEST SWAP2 POP PUSH2 0x103A DUP3 PUSH2 0xFFB JUMP JUMPDEST PUSH1 0x20 DUP3 ADD SWAP1 POP SWAP2 SWAP1 POP JUMP JUMPDEST PUSH0 PUSH1 0x20 DUP3 ADD SWAP1 POP DUP2 DUP2 SUB PUSH0 DUP4 ADD MSTORE PUSH2 0x105C DUP2 PUSH2 0x1023 JUMP JUMPDEST SWAP1 POP SWAP2 SWAP1 POP JUMP JUMPDEST PUSH32 0x63757272656E74206E6F20646F6E6F7273000000000000000000000000000000 PUSH0 DUP3 ADD MSTORE POP JUMP JUMPDEST PUSH0 PUSH2 0x1097 PUSH1 0x11 DUP4 PUSH2 0xD1B JUMP JUMPDEST SWAP2 POP PUSH2 0x10A2 DUP3 PUSH2 0x1063 JUMP JUMPDEST PUSH1 0x20 DUP3 ADD SWAP1 POP SWAP2 SWAP1 POP JUMP JUMPDEST PUSH0 PUSH1 0x20 DUP3 ADD SWAP1 POP DUP2 DUP2 SUB PUSH0 DUP4 ADD MSTORE PUSH2 0x10C4 DUP2 PUSH2 0x108B JUMP JUMPDEST SWAP1 POP SWAP2 SWAP1 POP JUMP JUMPDEST PUSH32 0x4E487B7100000000000000000000000000000000000000000000000000000000 PUSH0 MSTORE PUSH1 0x41 PUSH1 0x4 MSTORE PUSH1 0x24 PUSH0 REVERT JUMPDEST PUSH32 0x4E487B7100000000000000000000000000000000000000000000000000000000 PUSH0 MSTORE PUSH1 0x32 PUSH1 0x4 MSTORE PUSH1 0x24 PUSH0 REVERT JUMPDEST PUSH0 PUSH2 0x112F DUP3 PUSH2 0xD93 JUMP JUMPDEST SWAP2 POP PUSH2 0x113A DUP4 PUSH2 0xD93 JUMP JUMPDEST SWAP3 POP DUP3 DUP3 SUB SWAP1 POP DUP2 DUP2 GT ISZERO PUSH2 0x1152 JUMPI PUSH2 0x1151 PUSH2 0xD9C JUMP JUMPDEST JUMPDEST SWAP3 SWAP2 POP POP JUMP JUMPDEST PUSH32 0x646F6E617465206D757374203E30000000000000000000000000000000000000 PUSH0 DUP3 ADD MSTORE POP JUMP JUMPDEST PUSH0 PUSH2 0x118C PUSH1 0xE DUP4 PUSH2 0xD1B JUMP JUMPDEST SWAP2 POP PUSH2 0x1197 DUP3 PUSH2 0x1158 JUMP JUMPDEST PUSH1 0x20 DUP3 ADD SWAP1 POP SWAP2 SWAP1 POP JUMP JUMPDEST PUSH0 PUSH1 0x20 DUP3 ADD SWAP1 POP DUP2 DUP2 SUB PUSH0 DUP4 ADD MSTORE PUSH2 0x11B9 DUP2 PUSH2 0x1180 JUMP JUMPDEST SWAP1 POP SWAP2 SWAP1 POP JUMP INVALID LOG2 PUSH5 0x6970667358 0x22 SLT KECCAK256 0xCB 0xDC ADD PUSH15 0xDD38B475C3EF3E31AF25828F57574C DUP3 BALANCE 0xEB 0xB4 PUSH30 0xAB7790F581A8F9D064736F6C634300081E00330000000000000000000000 "
				},
				"gasEstimates": {
					"creation": {
						"codeDepositCost": "919600",
						"executionCost": "infinite",
						"totalCost": "infinite"
					},
					"external": {
						"donate()": "infinite",
						"getContractBalance()": "379",
						"getDonation(address)": "2886",
						"owner()": "2514",
						"queryTop3Donor()": "infinite",
						"renounceOwnership()": "infinite",
						"transferOwnership(address)": "infinite",
						"withdraw()": "infinite"
					}
				},
				"methodIdentifiers": {
					"donate()": "ed88c68e",
					"getContractBalance()": "6f9fb98a",
					"getDonation(address)": "410a1d32",
					"owner()": "8da5cb5b",
					"queryTop3Donor()": "e3a137f8",
					"renounceOwnership()": "715018a6",
					"transferOwnership(address)": "f2fde38b",
					"withdraw()": "3ccfd60b"
				}
			},
			"storageLayout": {
				"storage": [
					{
						"astId": 8,
						"contract": "task2/BeggingContract.sol:BeggingContract",
						"label": "_owner",
						"offset": 0,
						"slot": "0",
						"type": "t_address"
					},
					{
						"astId": 186,
						"contract": "task2/BeggingContract.sol:BeggingContract",
						"label": "donorsMapping",
						"offset": 0,
						"slot": "1",
						"type": "t_mapping(t_address,t_uint256)"
					},
					{
						"astId": 189,
						"contract": "task2/BeggingContract.sol:BeggingContract",
						"label": "donors",
						"offset": 0,
						"slot": "2",
						"type": "t_array(t_address)dyn_storage"
					}
				],
				"types": {
					"t_address": {
						"encoding": "inplace",
						"label": "address",
						"numberOfBytes": "20"
					},
					"t_array(t_address)dyn_storage": {
						"base": "t_address",
						"encoding": "dynamic_array",
						"label": "address[]",
						"numberOfBytes": "32"
					},
					"t_mapping(t_address,t_uint256)": {
						"encoding": "mapping",
						"key": "t_address",
						"label": "mapping(address => uint256)",
						"numberOfBytes": "32",
						"value": "t_uint256"
					},
					"t_uint256": {
						"encoding": "inplace",
						"label": "uint256",
						"numberOfBytes": "32"
					}
				}
			},
			"userdoc": {
				"kind": "user",
				"methods": {},
				"version": 1
			}
		}
	}
}